{
  "_format": "hh-sol-artifact-1",
  "contractName": "AtlasToken",
  "sourceName": "contracts/Token.sol",
  "abi": [
    {
      "inputs": [],
      "stateMutability": "nonpayable",
      "type": "constructor"
    },
    {
      "anonymous": false,
      "inputs": [
        {
          "indexed": true,
          "internalType": "address",
          "name": "owner",
          "type": "address"
        },
        {
          "indexed": true,
          "internalType": "address",
          "name": "spender",
          "type": "address"
        },
        {
          "indexed": false,
          "internalType": "uint256",
          "name": "value",
          "type": "uint256"
        }
      ],
      "name": "Approval",
      "type": "event"
    },
    {
      "anonymous": false,
      "inputs": [
        {
          "indexed": true,
          "internalType": "address",
          "name": "from",
          "type": "address"
        },
        {
          "indexed": true,
          "internalType": "address",
          "name": "to",
          "type": "address"
        },
        {
          "indexed": false,
          "internalType": "uint256",
          "name": "value",
          "type": "uint256"
        }
      ],
      "name": "Transfer",
      "type": "event"
    },
    {
      "inputs": [
        {
          "internalType": "address",
          "name": "owner",
          "type": "address"
        },
        {
          "internalType": "address",
          "name": "spender",
          "type": "address"
        }
      ],
      "name": "allowance",
      "outputs": [
        {
          "internalType": "uint256",
          "name": "",
          "type": "uint256"
        }
      ],
      "stateMutability": "view",
      "type": "function"
    },
    {
      "inputs": [
        {
          "internalType": "address",
          "name": "spender",
          "type": "address"
        },
        {
          "internalType": "uint256",
          "name": "amount",
          "type": "uint256"
        }
      ],
      "name": "approve",
      "outputs": [
        {
          "internalType": "bool",
          "name": "",
          "type": "bool"
        }
      ],
      "stateMutability": "nonpayable",
      "type": "function"
    },
    {
      "inputs": [
        {
          "internalType": "address",
          "name": "account",
          "type": "address"
        }
      ],
      "name": "balanceOf",
      "outputs": [
        {
          "internalType": "uint256",
          "name": "",
          "type": "uint256"
        }
      ],
      "stateMutability": "view",
      "type": "function"
    },
    {
      "inputs": [],
      "name": "decimals",
      "outputs": [
        {
          "internalType": "uint8",
          "name": "",
          "type": "uint8"
        }
      ],
      "stateMutability": "view",
      "type": "function"
    },
    {
      "inputs": [
        {
          "internalType": "address",
          "name": "spender",
          "type": "address"
        },
        {
          "internalType": "uint256",
          "name": "subtractedValue",
          "type": "uint256"
        }
      ],
      "name": "decreaseAllowance",
      "outputs": [
        {
          "internalType": "bool",
          "name": "",
          "type": "bool"
        }
      ],
      "stateMutability": "nonpayable",
      "type": "function"
    },
    {
      "inputs": [
        {
          "internalType": "address",
          "name": "spender",
          "type": "address"
        },
        {
          "internalType": "uint256",
          "name": "addedValue",
          "type": "uint256"
        }
      ],
      "name": "increaseAllowance",
      "outputs": [
        {
          "internalType": "bool",
          "name": "",
          "type": "bool"
        }
      ],
      "stateMutability": "nonpayable",
      "type": "function"
    },
    {
      "inputs": [
        {
          "internalType": "address",
          "name": "",
          "type": "address"
        }
      ],
      "name": "isExchangeAddress",
      "outputs": [
        {
          "internalType": "bool",
          "name": "",
          "type": "bool"
        }
      ],
      "stateMutability": "view",
      "type": "function"
    },
    {
      "inputs": [],
      "name": "name",
      "outputs": [
        {
          "internalType": "string",
          "name": "",
          "type": "string"
        }
      ],
      "stateMutability": "view",
      "type": "function"
    },
    {
      "inputs": [
        {
          "internalType": "address",
          "name": "_exchange",
          "type": "address"
        },
        {
          "internalType": "bool",
          "name": "_status",
          "type": "bool"
        }
      ],
      "name": "setExchangeAddress",
      "outputs": [],
      "stateMutability": "nonpayable",
      "type": "function"
    },
    {
      "inputs": [
        {
          "internalType": "uint256",
          "name": "_taxRate",
          "type": "uint256"
        }
      ],
      "name": "setTaxRate",
      "outputs": [],
      "stateMutability": "nonpayable",
      "type": "function"
    },
    {
      "inputs": [
        {
          "internalType": "address",
          "name": "_taxRecipient",
          "type": "address"
        }
      ],
      "name": "setTaxRecipient",
      "outputs": [],
      "stateMutability": "nonpayable",
      "type": "function"
    },
    {
      "inputs": [],
      "name": "symbol",
      "outputs": [
        {
          "internalType": "string",
          "name": "",
          "type": "string"
        }
      ],
      "stateMutability": "view",
      "type": "function"
    },
    {
      "inputs": [],
      "name": "taxRate",
      "outputs": [
        {
          "internalType": "uint256",
          "name": "",
          "type": "uint256"
        }
      ],
      "stateMutability": "view",
      "type": "function"
    },
    {
      "inputs": [],
      "name": "taxRecipient",
      "outputs": [
        {
          "internalType": "address",
          "name": "",
          "type": "address"
        }
      ],
      "stateMutability": "view",
      "type": "function"
    },
    {
      "inputs": [],
      "name": "totalSupply",
      "outputs": [
        {
          "internalType": "uint256",
          "name": "",
          "type": "uint256"
        }
      ],
      "stateMutability": "view",
      "type": "function"
    },
    {
      "inputs": [
        {
          "internalType": "address",
          "name": "to",
          "type": "address"
        },
        {
          "internalType": "uint256",
          "name": "amount",
          "type": "uint256"
        }
      ],
      "name": "transfer",
      "outputs": [
        {
          "internalType": "bool",
          "name": "",
          "type": "bool"
        }
      ],
      "stateMutability": "nonpayable",
      "type": "function"
    },
    {
      "inputs": [
        {
          "internalType": "address",
          "name": "from",
          "type": "address"
        },
        {
          "internalType": "address",
          "name": "to",
          "type": "address"
        },
        {
          "internalType": "uint256",
          "name": "amount",
          "type": "uint256"
        }
      ],
      "name": "transferFrom",
      "outputs": [
        {
          "internalType": "bool",
          "name": "",
          "type": "bool"
        }
      ],
      "stateMutability": "nonpayable",
      "type": "function"
    }
  ],
  "bytecode": "0x608060405260326006553480156200001657600080fd5b506040518060400160405280600581526020016441544c415360d81b8152506040518060400160405280600a81526020016941746c6173506169727360b01b81525081600390816200006991906200021f565b5060046200007882826200021f565b50505062000098336a52b7d2dcc80cd2e4000000620000b060201b60201c565b600580546001600160a01b0319163317905562000313565b6001600160a01b0382166200010b5760405162461bcd60e51b815260206004820152601f60248201527f45524332303a206d696e7420746f20746865207a65726f206164647265737300604482015260640160405180910390fd5b80600260008282546200011f9190620002eb565b90915550506001600160a01b038216600081815260208181526040808320805486019055518481527fddf252ad1be2c89b69c2b068fc378daa952ba7f163c4a11628f55a4df523b3ef910160405180910390a35050565b505050565b634e487b7160e01b600052604160045260246000fd5b600181811c90821680620001a657607f821691505b602082108103620001c757634e487b7160e01b600052602260045260246000fd5b50919050565b601f8211156200017657600081815260208120601f850160051c81016020861015620001f65750805b601f850160051c820191505b81811015620002175782815560010162000202565b505050505050565b81516001600160401b038111156200023b576200023b6200017b565b62000253816200024c845462000191565b84620001cd565b602080601f8311600181146200028b5760008415620002725750858301515b600019600386901b1c1916600185901b17855562000217565b600085815260208120601f198616915b82811015620002bc578886015182559484019460019091019084016200029b565b5085821015620002db5787850151600019600388901b60f8161c191681555b5050505050600190811b01905550565b808201808211156200030d57634e487b7160e01b600052601160045260246000fd5b92915050565b610c5480620003236000396000f3fe608060405234801561001057600080fd5b506004361061010b5760003560e01c8063737ea06e116100a257806395d89b411161007157806395d89b4114610240578063a457c2d714610248578063a9059cbb1461025b578063c6d69a301461026e578063dd62ed3e1461028157600080fd5b8063737ea06e146101e4578063771a3a1d1461020f57806378e3079e1461021857806386cefcb61461022d57600080fd5b8063313ce567116100de578063313ce5671461017657806339509351146101855780633f5b7d671461019857806370a08231146101bb57600080fd5b806306fdde0314610110578063095ea7b31461012e57806318160ddd1461015157806323b872dd14610163575b600080fd5b610118610294565b60405161012591906109f5565b60405180910390f35b61014161013c366004610a5f565b610326565b6040519015158152602001610125565b6002545b604051908152602001610125565b610141610171366004610a89565b610340565b60405160128152602001610125565b610141610193366004610a5f565b610364565b6101416101a6366004610ac5565b60076020526000908152604090205460ff1681565b6101556101c9366004610ac5565b6001600160a01b031660009081526020819052604090205490565b6005546101f7906001600160a01b031681565b6040516001600160a01b039091168152602001610125565b61015560065481565b61022b610226366004610ac5565b610386565b005b61022b61023b366004610ae7565b610423565b6101186104ce565b610141610256366004610a5f565b6104dd565b610141610269366004610a5f565b610558565b61022b61027c366004610b23565b610566565b61015561028f366004610b3c565b6105dc565b6060600380546102a390610b6f565b80601f01602080910402602001604051908101604052809291908181526020018280546102cf90610b6f565b801561031c5780601f106102f15761010080835404028352916020019161031c565b820191906000526020600020905b8154815290600101906020018083116102ff57829003601f168201915b5050505050905090565b600033610334818585610607565b60019150505b92915050565b60003361034e85828561072b565b6103598585856107a5565b506001949350505050565b60003361033481858561037783836105dc565b6103819190610bbf565b610607565b6005546001600160a01b031633146104015760405162461bcd60e51b815260206004820152603360248201527f4f6e6c79207468652074617820726563697069656e742063616e206368616e6760448201527219481d1a19481d185e081c9958da5c1a595b9d606a1b60648201526084015b60405180910390fd5b600580546001600160a01b0319166001600160a01b0392909216919091179055565b6005546001600160a01b031633146104a35760405162461bcd60e51b815260206004820152603860248201527f4f6e6c79207468652074617820726563697069656e742063616e206368616e6760448201527f65207468652065786368616e676520616464726573736573000000000000000060648201526084016103f8565b6001600160a01b03919091166000908152600760205260409020805460ff1916911515919091179055565b6060600480546102a390610b6f565b600033816104eb82866105dc565b90508381101561054b5760405162461bcd60e51b815260206004820152602560248201527f45524332303a2064656372656173656420616c6c6f77616e63652062656c6f77604482015264207a65726f60d81b60648201526084016103f8565b6103598286868403610607565b6000336103348185856107a5565b6005546001600160a01b031633146105d75760405162461bcd60e51b815260206004820152602e60248201527f4f6e6c79207468652074617820726563697069656e742063616e206368616e6760448201526d652074686520746178207261746560901b60648201526084016103f8565b600655565b6001600160a01b03918216600090815260016020908152604080832093909416825291909152205490565b6001600160a01b0383166106695760405162461bcd60e51b8152602060048201526024808201527f45524332303a20617070726f76652066726f6d20746865207a65726f206164646044820152637265737360e01b60648201526084016103f8565b6001600160a01b0382166106ca5760405162461bcd60e51b815260206004820152602260248201527f45524332303a20617070726f766520746f20746865207a65726f206164647265604482015261737360f01b60648201526084016103f8565b6001600160a01b0383811660008181526001602090815260408083209487168084529482529182902085905590518481527f8c5be1e5ebec7d5bd14f71427d1e84f3dd0314c0f7b2291e5b200ac8c7c3b925910160405180910390a3505050565b600061073784846105dc565b9050600019811461079f57818110156107925760405162461bcd60e51b815260206004820152601d60248201527f45524332303a20696e73756666696369656e7420616c6c6f77616e636500000060448201526064016103f8565b61079f8484848403610607565b50505050565b6001600160a01b03831660009081526007602052604090205460ff16806107e457506001600160a01b03821660009081526007602052604090205460ff165b156108415760006103e8600654836107fc9190610bd2565b6108069190610be9565b905060006108148284610c0b565b60055490915061082f9086906001600160a01b031684610851565b61083a858583610851565b5050505050565b61084c838383610851565b505050565b6001600160a01b0383166108b55760405162461bcd60e51b815260206004820152602560248201527f45524332303a207472616e736665722066726f6d20746865207a65726f206164604482015264647265737360d81b60648201526084016103f8565b6001600160a01b0382166109175760405162461bcd60e51b815260206004820152602360248201527f45524332303a207472616e7366657220746f20746865207a65726f206164647260448201526265737360e81b60648201526084016103f8565b6001600160a01b0383166000908152602081905260409020548181101561098f5760405162461bcd60e51b815260206004820152602660248201527f45524332303a207472616e7366657220616d6f756e7420657863656564732062604482015265616c616e636560d01b60648201526084016103f8565b6001600160a01b03848116600081815260208181526040808320878703905593871680835291849020805487019055925185815290927fddf252ad1be2c89b69c2b068fc378daa952ba7f163c4a11628f55a4df523b3ef910160405180910390a361079f565b600060208083528351808285015260005b81811015610a2257858101830151858201604001528201610a06565b506000604082860101526040601f19601f8301168501019250505092915050565b80356001600160a01b0381168114610a5a57600080fd5b919050565b60008060408385031215610a7257600080fd5b610a7b83610a43565b946020939093013593505050565b600080600060608486031215610a9e57600080fd5b610aa784610a43565b9250610ab560208501610a43565b9150604084013590509250925092565b600060208284031215610ad757600080fd5b610ae082610a43565b9392505050565b60008060408385031215610afa57600080fd5b610b0383610a43565b915060208301358015158114610b1857600080fd5b809150509250929050565b600060208284031215610b3557600080fd5b5035919050565b60008060408385031215610b4f57600080fd5b610b5883610a43565b9150610b6660208401610a43565b90509250929050565b600181811c90821680610b8357607f821691505b602082108103610ba357634e487b7160e01b600052602260045260246000fd5b50919050565b634e487b7160e01b600052601160045260246000fd5b8082018082111561033a5761033a610ba9565b808202811582820484141761033a5761033a610ba9565b600082610c0657634e487b7160e01b600052601260045260246000fd5b500490565b8181038181111561033a5761033a610ba956fea264697066735822122058ed9e79f81ecaf11ac29f8e6392406376bd5dfc46d21da753d86e74f88d607c64736f6c63430008120033",
  "linkReferences": {},
  "deployedLinkReferences": {}
}