{
  "_format": "hh-sol-artifact-1",
  "contractName": "PoolMaster",
  "sourceName": "contracts/PoolMaster.sol",
  "abi": [
    {
      "inputs": [],
      "stateMutability": "nonpayable",
      "type": "constructor"
    },
    {
      "anonymous": false,
      "inputs": [
        {
          "indexed": false,
          "internalType": "address",
          "name": "user",
          "type": "address"
        },
        {
          "indexed": false,
          "internalType": "uint256",
          "name": "tokenId",
          "type": "uint256"
        },
        {
          "indexed": false,
          "internalType": "bool",
          "name": "isAlpha",
          "type": "bool"
        }
      ],
      "name": "MintSuccessful",
      "type": "event"
    },
    {
      "anonymous": false,
      "inputs": [
        {
          "indexed": true,
          "internalType": "address",
          "name": "previousOwner",
          "type": "address"
        },
        {
          "indexed": true,
          "internalType": "address",
          "name": "newOwner",
          "type": "address"
        }
      ],
      "name": "OwnershipTransferred",
      "type": "event"
    },
    {
      "inputs": [],
      "name": "battlingPhaseDuration",
      "outputs": [
        {
          "internalType": "uint256",
          "name": "",
          "type": "uint256"
        }
      ],
      "stateMutability": "view",
      "type": "function"
    },
    {
      "inputs": [],
      "name": "bettingPhaseDuration",
      "outputs": [
        {
          "internalType": "uint256",
          "name": "",
          "type": "uint256"
        }
      ],
      "stateMutability": "view",
      "type": "function"
    },
    {
      "inputs": [],
      "name": "burnedTokensPercent",
      "outputs": [
        {
          "internalType": "uint256",
          "name": "",
          "type": "uint256"
        }
      ],
      "stateMutability": "view",
      "type": "function"
    },
    {
      "inputs": [
        {
          "internalType": "uint256",
          "name": "_poolWinnerId",
          "type": "uint256"
        }
      ],
      "name": "endEpoch",
      "outputs": [],
      "stateMutability": "nonpayable",
      "type": "function"
    },
    {
      "inputs": [],
      "name": "epochEnded",
      "outputs": [
        {
          "internalType": "bool",
          "name": "",
          "type": "bool"
        }
      ],
      "stateMutability": "view",
      "type": "function"
    },
    {
      "inputs": [
        {
          "internalType": "address",
          "name": "_user",
          "type": "address"
        }
      ],
      "name": "getIsUsdcForAddress",
      "outputs": [
        {
          "internalType": "bool",
          "name": "",
          "type": "bool"
        }
      ],
      "stateMutability": "view",
      "type": "function"
    },
    {
      "inputs": [
        {
          "internalType": "uint256",
          "name": "_poolId",
          "type": "uint256"
        }
      ],
      "name": "getLastWinner",
      "outputs": [
        {
          "internalType": "string",
          "name": "",
          "type": "string"
        }
      ],
      "stateMutability": "view",
      "type": "function"
    },
    {
      "inputs": [],
      "name": "getPhase",
      "outputs": [
        {
          "internalType": "uint256",
          "name": "",
          "type": "uint256"
        }
      ],
      "stateMutability": "view",
      "type": "function"
    },
    {
      "inputs": [
        {
          "internalType": "address",
          "name": "_user",
          "type": "address"
        }
      ],
      "name": "getPoolIdForAddress",
      "outputs": [
        {
          "internalType": "uint256",
          "name": "",
          "type": "uint256"
        }
      ],
      "stateMutability": "view",
      "type": "function"
    },
    {
      "inputs": [
        {
          "internalType": "uint256",
          "name": "_poolId",
          "type": "uint256"
        },
        {
          "internalType": "bool",
          "name": "_isUsdc",
          "type": "bool"
        }
      ],
      "name": "getStakedTokens",
      "outputs": [
        {
          "internalType": "uint256",
          "name": "",
          "type": "uint256"
        }
      ],
      "stateMutability": "view",
      "type": "function"
    },
    {
      "inputs": [
        {
          "internalType": "address",
          "name": "_user",
          "type": "address"
        }
      ],
      "name": "getStakedTokensForAddress",
      "outputs": [
        {
          "internalType": "uint256",
          "name": "",
          "type": "uint256"
        }
      ],
      "stateMutability": "view",
      "type": "function"
    },
    {
      "inputs": [
        {
          "internalType": "uint256",
          "name": "_poolId",
          "type": "uint256"
        }
      ],
      "name": "getSymbol",
      "outputs": [
        {
          "internalType": "string",
          "name": "",
          "type": "string"
        }
      ],
      "stateMutability": "view",
      "type": "function"
    },
    {
      "inputs": [
        {
          "internalType": "uint256",
          "name": "_lastSeconds",
          "type": "uint256"
        }
      ],
      "name": "getWinnerAddressAmountsForLastSeconds",
      "outputs": [
        {
          "internalType": "uint256[]",
          "name": "",
          "type": "uint256[]"
        }
      ],
      "stateMutability": "view",
      "type": "function"
    },
    {
      "inputs": [
        {
          "internalType": "uint256",
          "name": "_lastSeconds",
          "type": "uint256"
        }
      ],
      "name": "getWinnerAddressIsUsdcForLastSeconds",
      "outputs": [
        {
          "internalType": "bool[]",
          "name": "",
          "type": "bool[]"
        }
      ],
      "stateMutability": "view",
      "type": "function"
    },
    {
      "inputs": [
        {
          "internalType": "uint256",
          "name": "_lastSeconds",
          "type": "uint256"
        }
      ],
      "name": "getWinnerAddressStakerAddressForLastSeconds",
      "outputs": [
        {
          "internalType": "address[]",
          "name": "",
          "type": "address[]"
        }
      ],
      "stateMutability": "view",
      "type": "function"
    },
    {
      "inputs": [],
      "name": "loserTokensPercent",
      "outputs": [
        {
          "internalType": "uint256",
          "name": "",
          "type": "uint256"
        }
      ],
      "stateMutability": "view",
      "type": "function"
    },
    {
      "inputs": [],
      "name": "owner",
      "outputs": [
        {
          "internalType": "address",
          "name": "",
          "type": "address"
        }
      ],
      "stateMutability": "view",
      "type": "function"
    },
    {
      "inputs": [],
      "name": "pool3TokensPercent",
      "outputs": [
        {
          "internalType": "uint256",
          "name": "",
          "type": "uint256"
        }
      ],
      "stateMutability": "view",
      "type": "function"
    },
    {
      "inputs": [],
      "name": "renounceOwnership",
      "outputs": [],
      "stateMutability": "nonpayable",
      "type": "function"
    },
    {
      "inputs": [
        {
          "internalType": "uint256",
          "name": "_battlingPhaseDuration",
          "type": "uint256"
        }
      ],
      "name": "setBattlingPhaseDuration",
      "outputs": [],
      "stateMutability": "nonpayable",
      "type": "function"
    },
    {
      "inputs": [
        {
          "internalType": "uint256",
          "name": "_bettingPhaseDuration",
          "type": "uint256"
        }
      ],
      "name": "setBettingPhaseDuration",
      "outputs": [],
      "stateMutability": "nonpayable",
      "type": "function"
    },
    {
      "inputs": [
        {
          "internalType": "uint256",
          "name": "_burnedTokensPercent",
          "type": "uint256"
        }
      ],
      "name": "setBurnedTokensPercent",
      "outputs": [],
      "stateMutability": "nonpayable",
      "type": "function"
    },
    {
      "inputs": [
        {
          "internalType": "uint256",
          "name": "_loserTokensPercent",
          "type": "uint256"
        }
      ],
      "name": "setLoserTokensPercent",
      "outputs": [],
      "stateMutability": "nonpayable",
      "type": "function"
    },
    {
      "inputs": [
        {
          "internalType": "uint256",
          "name": "_pool3TokensPercent",
          "type": "uint256"
        }
      ],
      "name": "setPool3TokensPercent",
      "outputs": [],
      "stateMutability": "nonpayable",
      "type": "function"
    },
    {
      "inputs": [
        {
          "internalType": "address",
          "name": "_tokenAddress",
          "type": "address"
        }
      ],
      "name": "setTokenAddress",
      "outputs": [],
      "stateMutability": "nonpayable",
      "type": "function"
    },
    {
      "inputs": [
        {
          "internalType": "uint256",
          "name": "_unstakeFee",
          "type": "uint256"
        }
      ],
      "name": "setUnstakeFee",
      "outputs": [],
      "stateMutability": "nonpayable",
      "type": "function"
    },
    {
      "inputs": [
        {
          "internalType": "address",
          "name": "_usdcAddress",
          "type": "address"
        }
      ],
      "name": "setUsdcAddress",
      "outputs": [],
      "stateMutability": "nonpayable",
      "type": "function"
    },
    {
      "inputs": [
        {
          "internalType": "uint256",
          "name": "_usdcStakeFee",
          "type": "uint256"
        }
      ],
      "name": "setUsdcStakeFee",
      "outputs": [],
      "stateMutability": "nonpayable",
      "type": "function"
    },
    {
      "inputs": [
        {
          "internalType": "uint256",
          "name": "_winnerTokensPercent",
          "type": "uint256"
        }
      ],
      "name": "setWinnerTokensPercent",
      "outputs": [],
      "stateMutability": "nonpayable",
      "type": "function"
    },
    {
      "inputs": [
        {
          "internalType": "uint256",
          "name": "_poolId",
          "type": "uint256"
        },
        {
          "internalType": "uint256",
          "name": "_amount",
          "type": "uint256"
        },
        {
          "internalType": "bool",
          "name": "_isUsdc",
          "type": "bool"
        }
      ],
      "name": "stake",
      "outputs": [],
      "stateMutability": "payable",
      "type": "function"
    },
    {
      "inputs": [
        {
          "internalType": "string",
          "name": "_symbol1",
          "type": "string"
        },
        {
          "internalType": "string",
          "name": "_symbol2",
          "type": "string"
        }
      ],
      "name": "startEpoch",
      "outputs": [],
      "stateMutability": "nonpayable",
      "type": "function"
    },
    {
      "inputs": [],
      "name": "timestampStartEpoch",
      "outputs": [
        {
          "internalType": "uint256",
          "name": "",
          "type": "uint256"
        }
      ],
      "stateMutability": "view",
      "type": "function"
    },
    {
      "inputs": [],
      "name": "token",
      "outputs": [
        {
          "internalType": "contract IERC20",
          "name": "",
          "type": "address"
        }
      ],
      "stateMutability": "view",
      "type": "function"
    },
    {
      "inputs": [
        {
          "internalType": "address",
          "name": "newOwner",
          "type": "address"
        }
      ],
      "name": "transferOwnership",
      "outputs": [],
      "stateMutability": "nonpayable",
      "type": "function"
    },
    {
      "inputs": [],
      "name": "unstakeFee",
      "outputs": [
        {
          "internalType": "uint256",
          "name": "",
          "type": "uint256"
        }
      ],
      "stateMutability": "view",
      "type": "function"
    },
    {
      "inputs": [],
      "name": "usdc",
      "outputs": [
        {
          "internalType": "contract IERC20",
          "name": "",
          "type": "address"
        }
      ],
      "stateMutability": "view",
      "type": "function"
    },
    {
      "inputs": [],
      "name": "usdcStakeFee",
      "outputs": [
        {
          "internalType": "uint256",
          "name": "",
          "type": "uint256"
        }
      ],
      "stateMutability": "view",
      "type": "function"
    },
    {
      "inputs": [],
      "name": "winnerTokensPercent",
      "outputs": [
        {
          "internalType": "uint256",
          "name": "",
          "type": "uint256"
        }
      ],
      "stateMutability": "view",
      "type": "function"
    },
    {
      "inputs": [],
      "name": "withdrawEth",
      "outputs": [],
      "stateMutability": "nonpayable",
      "type": "function"
    },
    {
      "inputs": [],
      "name": "withdrawToken",
      "outputs": [],
      "stateMutability": "nonpayable",
      "type": "function"
    },
    {
      "inputs": [],
      "name": "withdrawUsdc",
      "outputs": [],
      "stateMutability": "nonpayable",
      "type": "function"
    }
  ],
  "bytecode": "0x608060405261012c6004556103846005556104e2600655611f4060075561019060085561064060095560c8600a556064600b55600c805460ff191660011790553480156200004c57600080fd5b50620000583362000281565b60018080556040805160e081018252600060c082018181528252825160208181018552828252830152918101829052606081018290526080810182905260a08101829052600e8054938401815590915280519091600602600080516020620036d583398151915201908190620000cf908262000376565b5060208201516001820190620000e6908262000376565b5060408281015160028301556060808401516003840155608080850151600485015560a094850151600590940193909355815160e081018352600060c082018181528252835160208181018652828252830152928101839052908101829052918201819052918101829052600e8054600181018255925280519091600602600080516020620036d58339815191520190819062000184908262000376565b50602082015160018201906200019b908262000376565b5060408281015160028301556060808401516003840155608080850151600485015560a094850151600590940193909355815160e081018352600060c082018181528252835160208181018652828252830152928101839052908101829052918201819052918101829052600e8054600181018255925280519091600602600080516020620036d58339815191520190819062000239908262000376565b506020820151600182019062000250908262000376565b5060408201518160020155606082015181600301556080820151816004015560a08201518160050155505062000442565b600080546001600160a01b038381166001600160a01b0319831681178455604051919092169283917f8be0079c531659141344cd1fd0a4f28419497f9722a3daafe3b4186f6b6457e09190a35050565b634e487b7160e01b600052604160045260246000fd5b600181811c90821680620002fc57607f821691505b6020821081036200031d57634e487b7160e01b600052602260045260246000fd5b50919050565b601f8211156200037157600081815260208120601f850160051c810160208610156200034c5750805b601f850160051c820191505b818110156200036d5782815560010162000358565b5050505b505050565b81516001600160401b03811115620003925762000392620002d1565b620003aa81620003a38454620002e7565b8462000323565b602080601f831160018114620003e25760008415620003c95750858301515b600019600386901b1c1916600185901b1785556200036d565b600085815260208120601f198616915b828110156200041357888601518255948401946001909101908401620003f2565b5085821015620004325787850151600019600388901b60f8161c191681555b5050505050600190811b01905550565b61328380620004526000396000f3fe6080604052600436106102455760003560e01c80638da5cb5b11610139578063bc770d06116100b6578063d8e660ed1161007a578063d8e660ed146106bb578063dc08e769146106f4578063eced028014610721578063f2fde38b14610736578063fc0c546a14610756578063fee84d4e1461077657600080fd5b8063bc770d0614610630578063ca628c7814610650578063d38bcdee14610665578063d459a41814610685578063d5030a031461069b57600080fd5b80639a1dee2b116100fd5780639a1dee2b146105b95780639ee664b6146105cf578063a0ef91df146105e5578063ae3e04b1146105fa578063ba2f303b1461061a57600080fd5b80638da5cb5b146105195780638ea97d2614610537578063949240d41461054d578063989e92991461056d57806398c44b7d1461058357600080fd5b8063561b2463116101c757806364cc37fb1161018b57806364cc37fb14610477578063715018a6146104975780637d8704b1146104ac5780638301151c146104d95780638bbbbbde146104f957600080fd5b8063561b2463146103cb5780635a8b9599146103de5780635cdef57d146104215780636164e45d146104375780636418413c1461045757600080fd5b80631f5c735b1161020e5780631f5c735b1461031957806325b511bd1461033d57806326a4e8d2146103535780633e413bee1461037357806352916f25146103ab57600080fd5b806218a1161461024a57806307ed92d01461026c57806316ea2c571461028c578063175db3c4146102c25780631d1c7fab146102ec575b600080fd5b34801561025657600080fd5b5061026a610265366004612bd0565b61078b565b005b34801561027857600080fd5b5061026a610287366004612bd0565b610798565b34801561029857600080fd5b506102ac6102a7366004612bd0565b6107a5565b6040516102b99190612c0d565b60405180910390f35b3480156102ce57600080fd5b50600c546102dc9060ff1681565b60405190151581526020016102b9565b3480156102f857600080fd5b5061030c610307366004612bd0565b61085b565b6040516102b99190612c40565b34801561032557600080fd5b5061032f60065481565b6040519081526020016102b9565b34801561034957600080fd5b5061032f60055481565b34801561035f57600080fd5b5061026a61036e366004612c86565b6109ad565b34801561037f57600080fd5b50600354610393906001600160a01b031681565b6040516001600160a01b0390911681526020016102b9565b3480156103b757600080fd5b5061026a6103c6366004612bd0565b6109d7565b61026a6103d9366004612cc4565b6109e4565b3480156103ea57600080fd5b506102dc6103f9366004612c86565b6001600160a01b03166000908152600f6020526040902060020154600160a01b900460ff1690565b34801561042d57600080fd5b5061032f60095481565b34801561044357600080fd5b5061026a610452366004612bd0565b6110a0565b34801561046357600080fd5b506102ac610472366004612bd0565b611e94565b34801561048357600080fd5b5061026a610492366004612bd0565b611ec5565b3480156104a357600080fd5b5061026a611ed2565b3480156104b857600080fd5b506104cc6104c7366004612bd0565b611ee6565b6040516102b99190612cfd565b3480156104e557600080fd5b5061026a6104f4366004612bd0565b612044565b34801561050557600080fd5b5061026a610514366004612bd0565b612051565b34801561052557600080fd5b506000546001600160a01b0316610393565b34801561054357600080fd5b5061032f600a5481565b34801561055957600080fd5b5061032f610568366004612d3e565b61205e565b34801561057957600080fd5b5061032f60045481565b34801561058f57600080fd5b5061032f61059e366004612c86565b6001600160a01b03166000908152600f602052604090205490565b3480156105c557600080fd5b5061032f600d5481565b3480156105db57600080fd5b5061032f60075481565b3480156105f157600080fd5b5061026a6120be565b34801561060657600080fd5b5061026a610615366004612bd0565b612162565b34801561062657600080fd5b5061032f60085481565b34801561063c57600080fd5b5061026a61064b366004612bd0565b61216f565b34801561065c57600080fd5b5061026a61217c565b34801561067157600080fd5b5061026a610680366004612c86565b612272565b34801561069157600080fd5b5061032f600b5481565b3480156106a757600080fd5b5061026a6106b6366004612db7565b61229c565b3480156106c757600080fd5b5061032f6106d6366004612c86565b6001600160a01b03166000908152600f602052604090206001015490565b34801561070057600080fd5b5061071461070f366004612bd0565b612578565b6040516102b99190612e23565b34801561072d57600080fd5b5061032f6126af565b34801561074257600080fd5b5061026a610751366004612c86565b6126fb565b34801561076257600080fd5b50600254610393906001600160a01b031681565b34801561078257600080fd5b5061026a612771565b6107936127bb565b600a55565b6107a06127bb565b600555565b6060600e82815481106107ba576107ba612e5b565b906000526020600020906006020160010180546107d690612e71565b80601f016020809104026020016040519081016040528092919081815260200182805461080290612e71565b801561084f5780601f106108245761010080835404028352916020019161084f565b820191906000526020600020905b81548152906001019060200180831161083257829003601f168201915b50505050509050919050565b60135460609042906000805b828110156108bc5783866013838154811061088457610884612e5b565b9060005260206000209060030201600101546108a09190612ec1565b11156108b457816108b081612ed4565b9250505b600101610867565b5060008167ffffffffffffffff8111156108d8576108d8612eed565b604051908082528060200260200182016040528015610901578160200160208202803683370190505b50905060005b838110156109a35784876013838154811061092457610924612e5b565b9060005260206000209060030201600101546109409190612ec1565b111561099b576013818154811061095957610959612e5b565b906000526020600020906003020160020160149054906101000a900460ff1682828151811061098a5761098a612e5b565b911515602092830291909101909101525b600101610907565b5095945050505050565b6109b56127bb565b600280546001600160a01b0319166001600160a01b0392909216919091179055565b6109df6127bb565b600b55565b6109ec612815565b600c5460ff1615610a3c5760405162461bcd60e51b8152602060048201526015602482015274115c1bd8da081b9bdd081cdd185c9d1959081e595d605a1b60448201526064015b60405180910390fd5b610a446126af565b15610a915760405162461bcd60e51b815260206004820152601860248201527f42657474696e672070686173652068617320656e6465642e00000000000000006044820152606401610a33565b6002831115610ad45760405162461bcd60e51b815260206004820152600f60248201526e125b9d985b1a59081c1bdbdb081259608a1b6044820152606401610a33565b826002148015610ae15750805b15610b2e5760405162461bcd60e51b815260206004820181905260248201527f43616e6e6f74207374616b65207573646320696e20746869726420706f6f6c2e6044820152606401610a33565b336000908152600f60205260409020600201546001600160a01b031615610ba25760405162461bcd60e51b815260206004820152602260248201527f5573657220616c7265616479207374616b656420666f7220746869732065706f6044820152610c6d60f31b6064820152608401610a33565b818115610c33576001841115610bec5760405162461bcd60e51b815260206004820152600f60248201526e125b9d985b1a59081c1bdbdb081259608a1b6044820152606401610a33565b612710600b54612710610bff9190612f03565b610c099085612f16565b610c139190612f2d565b600354909150610c2e906001600160a01b031633308661286e565b610c4b565b600254610c4b906001600160a01b031633308661286e565b60008111610c9b5760405162461bcd60e51b815260206004820152601d60248201527f4d757374207374616b65206d6f7265207468616e203020746f6b656e730000006044820152606401610a33565b60408051608081018252858152602080820184815233838501818152871515606086019081526000928352600f909452949020835181559051600182015592516002909301805491511515600160a01b026001600160a81b03199092166001600160a01b0394909416939093171790915582610d175783610d1a565b60005b600e8681548110610d2d57610d2d612e5b565b90600052602060002090600602016002016000828254610d4d9190612ec1565b90915550839050610d5f576000610d61565b835b600e8681548110610d7457610d74612e5b565b90600052602060002090600602016003016000828254610d949190612ec1565b90915550839050610da6576001610da9565b60005b60ff16600e8681548110610dbf57610dbf612e5b565b90600052602060002090600602016004016000828254610ddf9190612ec1565b90915550839050610df1576000610df4565b60015b60ff16600e8681548110610e0a57610e0a612e5b565b90600052602060002090600602016005016000828254610e2a9190612ec1565b90915550506000859003610efc576010805460018101825560009190915281517f1b6847dc741a1b0cd08d278845f9d819d87b734759afb55fe2de5cb82a9ae67260039092029182015560208201517f1b6847dc741a1b0cd08d278845f9d819d87b734759afb55fe2de5cb82a9ae67382015560408201517f1b6847dc741a1b0cd08d278845f9d819d87b734759afb55fe2de5cb82a9ae674909101805460608401516001600160a01b039093166001600160a81b031990911617600160a01b92151592909202919091179055611090565b84600103610fc8576011805460018101825560009190915281517f31ecc21a745e3968a04e9570e4425bc18fa8019c68028196b546d1669c200c6860039092029182015560208201517f31ecc21a745e3968a04e9570e4425bc18fa8019c68028196b546d1669c200c6982015560408201517f31ecc21a745e3968a04e9570e4425bc18fa8019c68028196b546d1669c200c6a909101805460608401516001600160a01b039093166001600160a81b031990911617600160a01b92151592909202919091179055611090565b84600203611090576012805460018101825560009190915281517fbb8a6a4669ba250d26cd7a459eca9d215f8307e33aebe50379bc5a3617ec344460039092029182015560208201517fbb8a6a4669ba250d26cd7a459eca9d215f8307e33aebe50379bc5a3617ec344582015560408201517fbb8a6a4669ba250d26cd7a459eca9d215f8307e33aebe50379bc5a3617ec3446909101805460608401516001600160a01b039093166001600160a81b031990911617600160a01b921515929092029190911790555b505061109b60018055565b505050565b6110a86127bb565b6110b0612815565b600c5460ff16156111035760405162461bcd60e51b815260206004820152601b60248201527f43757272656e742065706f636820616c726561647920656e64656400000000006044820152606401610a33565b61110b6126af565b60021461115a5760405162461bcd60e51b815260206004820181905260248201527f45706f6368206e6f7420726561647920746f20626520656e646564207965742e6044820152606401610a33565b600c805460ff19166001908117909155600090611178908390612f03565b90506000811561118a5760115461118e565b6010545b9050600083156111a0576011546111a4565b6010545b905060405180602001604052806000815250600e84815481106111c9576111c9612e5b565b906000526020600020906006020160010190816111e69190612fb2565b50600e84815481106111fa576111fa612e5b565b9060005260206000209060060201600001600e858154811061121e5761121e612e5b565b9060005260206000209060060201600101908161123b919061306c565b5060008060005b848110156114b65760008615611278576011828154811061126557611265612e5b565b906000526020600020906003020161129a565b6010828154811061128b5761128b612e5b565b90600052602060002090600302015b60408051608081018252825481526001830154602082018190526002909301546001600160a01b03811692820192909252600160a01b90910460ff1615156060820152600654909250600091612710916112f391612f16565b6112fd9190612f2d565b905060008183602001516113119190612f03565b90508260600151156113aa57600354604084810151905163a9059cbb60e01b81526001600160a01b0391821660048201526024810184905291169063a9059cbb906044016020604051808303816000875af1158015611374573d6000803e3d6000fd5b505050506040513d601f19601f820116820180604052508101906113989190613141565b506113a38286612ec1565b9450611433565b600254604084810151905163a9059cbb60e01b81526001600160a01b0391821660048201526024810184905291169063a9059cbb906044016020604051808303816000875af1158015611401573d6000803e3d6000fd5b505050506040513d601f19601f820116820180604052508101906114259190613141565b506114308287612ec1565b95505b5050604080516080810182526000808252602080830182815283850183815260608501848152968601516001600160a01b039081168552600f9093529490922092518355905160018381019190915592516002909201805494511515600160a01b026001600160a81b031990951692909116919091179290921790915501611242565b506000612710600754846114ca9190612f16565b6114d49190612f2d565b90506000612710600754846114e99190612f16565b6114f39190612f2d565b90506000806000600e8b8154811061150d5761150d612e5b565b906000526020600020906006020160040154111561155857600e8a8154811061153857611538612e5b565b906000526020600020906006020160040154846115559190612f2d565b91505b6000600e8b8154811061156d5761156d612e5b565b90600052602060002090600602016005015411156115b857600e8a8154811061159857611598612e5b565b906000526020600020906006020160050154836115b59190612f2d565b90505b60005b878110156119e05760008b156115f157601182815481106115de576115de612e5b565b9060005260206000209060030201611613565b6010828154811061160457611604612e5b565b90600052602060002090600302015b6040805160808101825282548152600183015460208201526002909201546001600160a01b03811691830191909152600160a01b900460ff1615801560608301529091506117df57600354604082015160208301516001600160a01b039092169163a9059cbb9190611686908790612ec1565b6040516001600160e01b031960e085901b1681526001600160a01b03909216600483015260248201526044016020604051808303816000875af11580156116d1573d6000803e3d6000fd5b505050506040513d601f19601f820116820180604052508101906116f59190613141565b50604080516080810182528481524260208201908152838301516001600160a01b0390811693830193845260608086015115159084019081526013805460018101825560009190915293517f66de8ffda797e3de9c05e8fc57b3bf0ec28a930d40b0d285d93c06501cf6a09060039095029485015591517f66de8ffda797e3de9c05e8fc57b3bf0ec28a930d40b0d285d93c06501cf6a09184015592517f66de8ffda797e3de9c05e8fc57b3bf0ec28a930d40b0d285d93c06501cf6a09290920180549151929093166001600160a81b031990911617600160a01b9115159190910217905561195f565b600254604082015160208301516001600160a01b039092169163a9059cbb919061180a908890612ec1565b6040516001600160e01b031960e085901b1681526001600160a01b03909216600483015260248201526044016020604051808303816000875af1158015611855573d6000803e3d6000fd5b505050506040513d601f19601f820116820180604052508101906118799190613141565b50604080516080810182528581524260208201908152838301516001600160a01b0390811693830193845260608086015115159084019081526013805460018101825560009190915293517f66de8ffda797e3de9c05e8fc57b3bf0ec28a930d40b0d285d93c06501cf6a09060039095029485015591517f66de8ffda797e3de9c05e8fc57b3bf0ec28a930d40b0d285d93c06501cf6a09184015592517f66de8ffda797e3de9c05e8fc57b3bf0ec28a930d40b0d285d93c06501cf6a09290920180549151929093166001600160a81b031990911617600160a01b911515919091021790555b604080516080810182526000808252602080830182815283850183815260608501848152968601516001600160a01b039081168552600f9093529490922092518355905160018381019190915592516002909201805494511515600160a01b026001600160a81b0319909516929091169190911792909217909155016115bb565b506000612710600854886119f49190612f16565b6119fe9190612f2d565b9050600061271060085488611a139190612f16565b611a1d9190612f2d565b60035460405163a9059cbb60e01b815261dead6004820152602481018390529192506001600160a01b03169063a9059cbb906044016020604051808303816000875af1158015611a71573d6000803e3d6000fd5b505050506040513d601f19601f82011682018060405250810190611a959190613141565b5060025460405163a9059cbb60e01b815261dead6004820152602481018490526001600160a01b039091169063a9059cbb906044016020604051808303816000875af1158015611ae9573d6000803e3d6000fd5b505050506040513d601f19601f82011682018060405250810190611b0d9190613141565b5060125460095460009061271090611b25908c612f16565b611b2f9190612f2d565b905060006127106009548b611b449190612f16565b611b4e9190612f2d565b90506000806000600e600281548110611b6957611b69612e5b565b9060005260206000209060060201600401541115611bb557600e600281548110611b9557611b95612e5b565b90600052602060002090600602016004015484611bb29190612f2d565b91505b6000600e600281548110611bcb57611bcb612e5b565b9060005260206000209060060201600501541115611c1757600e600281548110611bf757611bf7612e5b565b90600052602060002090600602016005015483611c149190612f2d565b90505b60005b85811015611e5357600060128281548110611c3757611c37612e5b565b600091825260209182902060408051608081018252600393909302909101805483526001810154938301939093526002909201546001600160a01b03811692820192909252600160a01b90910460ff161580156060830152909150611d3657600354604082015160208301516001600160a01b039092169163a9059cbb9190611cc1908790612ec1565b6040516001600160e01b031960e085901b1681526001600160a01b03909216600483015260248201526044016020604051808303816000875af1158015611d0c573d6000803e3d6000fd5b505050506040513d601f19601f82011682018060405250810190611d309190613141565b50611dd2565b600254604082015160208301516001600160a01b039092169163a9059cbb9190611d61908890612ec1565b6040516001600160e01b031960e085901b1681526001600160a01b03909216600483015260248201526044016020604051808303816000875af1158015611dac573d6000803e3d6000fd5b505050506040513d601f19601f82011682018060405250810190611dd09190613141565b505b604080516080810182526000808252602080830182815283850183815260608501848152968601516001600160a01b039081168552600f9093529490922092518355905160018381019190915592516002909201805494511515600160a01b026001600160a81b031990951692909116919091179290921790915501611c1a565b50611e6060106000612b83565b611e6c60116000612b83565b611e7860126000612b83565b50505050505050505050505050505050611e9160018055565b50565b6060600e8281548110611ea957611ea9612e5b565b906000526020600020906006020160000180546107d690612e71565b611ecd6127bb565b600955565b611eda6127bb565b611ee460006128ce565b565b60135460609042906000805b82811015611f4757838660138381548110611f0f57611f0f612e5b565b906000526020600020906003020160010154611f2b9190612ec1565b1115611f3f5781611f3b81612ed4565b9250505b600101611ef2565b5060008167ffffffffffffffff811115611f6357611f63612eed565b604051908082528060200260200182016040528015611f8c578160200160208202803683370190505b50905060005b838110156109a357848760138381548110611faf57611faf612e5b565b906000526020600020906003020160010154611fcb9190612ec1565b111561203c5760138181548110611fe457611fe4612e5b565b906000526020600020906003020160020160009054906101000a90046001600160a01b031682828151811061201b5761201b612e5b565b60200260200101906001600160a01b031690816001600160a01b0316815250505b600101611f92565b61204c6127bb565b600455565b6120596127bb565b600755565b60008161208f57600e838154811061207857612078612e5b565b9060005260206000209060060201600201546120b5565b600e83815481106120a2576120a2612e5b565b9060005260206000209060060201600301545b90505b92915050565b6120c66127bb565b6120ce612815565b604051600090339047908381818185875af1925050503d8060008114612110576040519150601f19603f3d011682016040523d82523d6000602084013e612115565b606091505b50509050806121585760405162461bcd60e51b815260206004820152600f60248201526e151c985b9cd9995c8819985a5b1959608a1b6044820152606401610a33565b50611ee460018055565b61216a6127bb565b600655565b6121776127bb565b600855565b6121846127bb565b61218c612815565b6002546040516370a0823160e01b81523060048201526001600160a01b039091169063a9059cbb90339083906370a08231906024015b602060405180830381865afa1580156121df573d6000803e3d6000fd5b505050506040513d601f19601f82011682018060405250810190612203919061315e565b6040516001600160e01b031960e085901b1681526001600160a01b03909216600483015260248201526044016020604051808303816000875af115801561224e573d6000803e3d6000fd5b505050506040513d601f19601f820116820180604052508101906121589190613141565b61227a6127bb565b600380546001600160a01b0319166001600160a01b0392909216919091179055565b6122a46127bb565b600c5460ff166122f65760405162461bcd60e51b815260206004820152601b60248201527f43757272656e742065706f636820686173206e6f7420656e64656400000000006044820152606401610a33565b600c805460ff19169055600e80548591859160009061231757612317612e5b565b90600052602060002090600602016000019182612335929190613177565b508181600e60018154811061234c5761234c612e5b565b9060005260206000209060060201600001918261236a929190613177565b506000600e60008154811061238157612381612e5b565b9060005260206000209060060201600201819055506000600e6001815481106123ac576123ac612e5b565b9060005260206000209060060201600201819055506000600e6002815481106123d7576123d7612e5b565b9060005260206000209060060201600201819055506000600e60008154811061240257612402612e5b565b9060005260206000209060060201600301819055506000600e60018154811061242d5761242d612e5b565b9060005260206000209060060201600301819055506000600e60028154811061245857612458612e5b565b9060005260206000209060060201600301819055506000600e60008154811061248357612483612e5b565b9060005260206000209060060201600401819055506000600e6001815481106124ae576124ae612e5b565b9060005260206000209060060201600401819055506000600e6002815481106124d9576124d9612e5b565b9060005260206000209060060201600401819055506000600e60008154811061250457612504612e5b565b9060005260206000209060060201600501819055506000600e60018154811061252f5761252f612e5b565b9060005260206000209060060201600501819055506000600e60028154811061255a5761255a612e5b565b6000918252602090912060056006909202010155505042600d555050565b60135460609042906000805b828110156125d9578386601383815481106125a1576125a1612e5b565b9060005260206000209060030201600101546125bd9190612ec1565b11156125d157816125cd81612ed4565b9250505b600101612584565b5060008167ffffffffffffffff8111156125f5576125f5612eed565b60405190808252806020026020018201604052801561261e578160200160208202803683370190505b50905060005b838110156109a35784876013838154811061264157612641612e5b565b90600052602060002090600302016001015461265d9190612ec1565b11156126a7576013818154811061267657612676612e5b565b90600052602060002090600302016000015482828151811061269a5761269a612e5b565b6020026020010181815250505b600101612624565b600080600d54426126c09190612f03565b90506005548111806126d45750600c5460ff165b156126e157600291505090565b6004548111156126f357600191505090565b600091505090565b6127036127bb565b6001600160a01b0381166127685760405162461bcd60e51b815260206004820152602660248201527f4f776e61626c653a206e6577206f776e657220697320746865207a65726f206160448201526564647265737360d01b6064820152608401610a33565b611e91816128ce565b6127796127bb565b612781612815565b6003546040516370a0823160e01b81523060048201526001600160a01b039091169063a9059cbb90339083906370a08231906024016121c2565b6000546001600160a01b03163314611ee45760405162461bcd60e51b815260206004820181905260248201527f4f776e61626c653a2063616c6c6572206973206e6f7420746865206f776e65726044820152606401610a33565b6002600154036128675760405162461bcd60e51b815260206004820152601f60248201527f5265656e7472616e637947756172643a207265656e7472616e742063616c6c006044820152606401610a33565b6002600155565b604080516001600160a01b0385811660248301528416604482015260648082018490528251808303909101815260849091019091526020810180516001600160e01b03166323b872dd60e01b1790526128c890859061291e565b50505050565b600080546001600160a01b038381166001600160a01b0319831681178455604051919092169283917f8be0079c531659141344cd1fd0a4f28419497f9722a3daafe3b4186f6b6457e09190a35050565b6000612973826040518060400160405280602081526020017f5361666545524332303a206c6f772d6c6576656c2063616c6c206661696c6564815250856001600160a01b03166129f39092919063ffffffff16565b90508051600014806129945750808060200190518101906129949190613141565b61109b5760405162461bcd60e51b815260206004820152602a60248201527f5361666545524332303a204552433230206f7065726174696f6e20646964206e6044820152691bdd081cdd58d8d9595960b21b6064820152608401610a33565b6060612a028484600085612a0a565b949350505050565b606082471015612a6b5760405162461bcd60e51b815260206004820152602660248201527f416464726573733a20696e73756666696369656e742062616c616e636520666f6044820152651c8818d85b1b60d21b6064820152608401610a33565b600080866001600160a01b03168587604051612a879190613231565b60006040518083038185875af1925050503d8060008114612ac4576040519150601f19603f3d011682016040523d82523d6000602084013e612ac9565b606091505b5091509150612ada87838387612ae5565b979650505050505050565b60608315612b54578251600003612b4d576001600160a01b0385163b612b4d5760405162461bcd60e51b815260206004820152601d60248201527f416464726573733a2063616c6c20746f206e6f6e2d636f6e74726163740000006044820152606401610a33565b5081612a02565b612a028383815115612b695781518083602001fd5b8060405162461bcd60e51b8152600401610a339190612c0d565b5080546000825560030290600052602060002090810190611e9191905b80821115612bcc57600080825560018201556002810180546001600160a81b0319169055600301612ba0565b5090565b600060208284031215612be257600080fd5b5035919050565b60005b83811015612c04578181015183820152602001612bec565b50506000910152565b6020815260008251806020840152612c2c816040850160208701612be9565b601f01601f19169190910160400192915050565b6020808252825182820181905260009190848201906040850190845b81811015612c7a578351151583529284019291840191600101612c5c565b50909695505050505050565b600060208284031215612c9857600080fd5b81356001600160a01b0381168114612caf57600080fd5b9392505050565b8015158114611e9157600080fd5b600080600060608486031215612cd957600080fd5b83359250602084013591506040840135612cf281612cb6565b809150509250925092565b6020808252825182820181905260009190848201906040850190845b81811015612c7a5783516001600160a01b031683529284019291840191600101612d19565b60008060408385031215612d5157600080fd5b823591506020830135612d6381612cb6565b809150509250929050565b60008083601f840112612d8057600080fd5b50813567ffffffffffffffff811115612d9857600080fd5b602083019150836020828501011115612db057600080fd5b9250929050565b60008060008060408587031215612dcd57600080fd5b843567ffffffffffffffff80821115612de557600080fd5b612df188838901612d6e565b90965094506020870135915080821115612e0a57600080fd5b50612e1787828801612d6e565b95989497509550505050565b6020808252825182820181905260009190848201906040850190845b81811015612c7a57835183529284019291840191600101612e3f565b634e487b7160e01b600052603260045260246000fd5b600181811c90821680612e8557607f821691505b602082108103612ea557634e487b7160e01b600052602260045260246000fd5b50919050565b634e487b7160e01b600052601160045260246000fd5b808201808211156120b8576120b8612eab565b600060018201612ee657612ee6612eab565b5060010190565b634e487b7160e01b600052604160045260246000fd5b818103818111156120b8576120b8612eab565b80820281158282048414176120b8576120b8612eab565b600082612f4a57634e487b7160e01b600052601260045260246000fd5b500490565b601f82111561109b57600081815260208120601f850160051c81016020861015612f765750805b601f850160051c820191505b81811015612f9557828155600101612f82565b505050505050565b600019600383901b1c191660019190911b1790565b815167ffffffffffffffff811115612fcc57612fcc612eed565b612fe081612fda8454612e71565b84612f4f565b602080601f83116001811461300f5760008415612ffd5750858301515b6130078582612f9d565b865550612f95565b600085815260208120601f198616915b8281101561303e5788860151825594840194600190910190840161301f565b508582101561305c5787850151600019600388901b60f8161c191681555b5050505050600190811b01905550565b818103613077575050565b6130818254612e71565b67ffffffffffffffff81111561309957613099612eed565b6130a781612fda8454612e71565b6000601f8211600181146130d557600083156130c35750848201545b6130cd8482612f9d565b85555061313a565b600085815260209020601f19841690600086815260209020845b8381101561310f57828601548255600195860195909101906020016130ef565b508583101561312d5781850154600019600388901b60f8161c191681555b50505060018360011b0184555b5050505050565b60006020828403121561315357600080fd5b8151612caf81612cb6565b60006020828403121561317057600080fd5b5051919050565b67ffffffffffffffff83111561318f5761318f612eed565b6131a38361319d8354612e71565b83612f4f565b6000601f8411600181146131d157600085156131bf5750838201355b6131c98682612f9d565b84555061313a565b600083815260209020601f19861690835b8281101561320257868501358255602094850194600190920191016131e2565b508682101561321f5760001960f88860031b161c19848701351681555b505060018560011b0183555050505050565b60008251613243818460208701612be9565b919091019291505056fea2646970667358221220ea34effc8462b1a6421ed6a4a16b7492565145e312318533cc327f22b83449cf64736f6c63430008120033bb7b4a454dc3493923482f07822329ed19e8244eff582cc204f8554c3620c3fd",
  "linkReferences": {},
  "deployedLinkReferences": {}
}