{
  "_format": "hh-sol-artifact-1",
  "contractName": "PoolMaster",
  "sourceName": "contracts/PoolMaster.sol",
  "abi": [
    {
      "inputs": [],
      "stateMutability": "nonpayable",
      "type": "constructor"
    },
    {
      "anonymous": false,
      "inputs": [
        {
          "indexed": true,
          "internalType": "address",
          "name": "previousOwner",
          "type": "address"
        },
        {
          "indexed": true,
          "internalType": "address",
          "name": "newOwner",
          "type": "address"
        }
      ],
      "name": "OwnershipTransferred",
      "type": "event"
    },
    {
      "inputs": [],
      "name": "battlingPhaseDuration",
      "outputs": [
        {
          "internalType": "uint256",
          "name": "",
          "type": "uint256"
        }
      ],
      "stateMutability": "view",
      "type": "function"
    },
    {
      "inputs": [],
      "name": "bettingPhaseDuration",
      "outputs": [
        {
          "internalType": "uint256",
          "name": "",
          "type": "uint256"
        }
      ],
      "stateMutability": "view",
      "type": "function"
    },
    {
      "inputs": [],
      "name": "burnedTokensPercent",
      "outputs": [
        {
          "internalType": "uint256",
          "name": "",
          "type": "uint256"
        }
      ],
      "stateMutability": "view",
      "type": "function"
    },
    {
      "inputs": [
        {
          "internalType": "uint256",
          "name": "_poolWinnerId",
          "type": "uint256"
        }
      ],
      "name": "endEpoch",
      "outputs": [],
      "stateMutability": "nonpayable",
      "type": "function"
    },
    {
      "inputs": [],
      "name": "epochEnded",
      "outputs": [
        {
          "internalType": "bool",
          "name": "",
          "type": "bool"
        }
      ],
      "stateMutability": "view",
      "type": "function"
    },
    {
      "inputs": [
        {
          "internalType": "uint256",
          "name": "_poolId",
          "type": "uint256"
        }
      ],
      "name": "getInitialPrice",
      "outputs": [
        {
          "internalType": "string",
          "name": "",
          "type": "string"
        }
      ],
      "stateMutability": "view",
      "type": "function"
    },
    {
      "inputs": [
        {
          "internalType": "address",
          "name": "_user",
          "type": "address"
        }
      ],
      "name": "getIsUsdcForAddress",
      "outputs": [
        {
          "internalType": "bool",
          "name": "",
          "type": "bool"
        }
      ],
      "stateMutability": "view",
      "type": "function"
    },
    {
      "inputs": [
        {
          "internalType": "uint256",
          "name": "_poolId",
          "type": "uint256"
        }
      ],
      "name": "getLastWinner",
      "outputs": [
        {
          "internalType": "string",
          "name": "",
          "type": "string"
        }
      ],
      "stateMutability": "view",
      "type": "function"
    },
    {
      "inputs": [],
      "name": "getPhase",
      "outputs": [
        {
          "internalType": "uint256",
          "name": "",
          "type": "uint256"
        }
      ],
      "stateMutability": "view",
      "type": "function"
    },
    {
      "inputs": [
        {
          "internalType": "address",
          "name": "_user",
          "type": "address"
        }
      ],
      "name": "getPoolIdForAddress",
      "outputs": [
        {
          "internalType": "uint256",
          "name": "",
          "type": "uint256"
        }
      ],
      "stateMutability": "view",
      "type": "function"
    },
    {
      "inputs": [
        {
          "internalType": "uint256",
          "name": "_poolId",
          "type": "uint256"
        },
        {
          "internalType": "bool",
          "name": "_isUsdc",
          "type": "bool"
        }
      ],
      "name": "getStakedTokens",
      "outputs": [
        {
          "internalType": "uint256",
          "name": "",
          "type": "uint256"
        }
      ],
      "stateMutability": "view",
      "type": "function"
    },
    {
      "inputs": [
        {
          "internalType": "address",
          "name": "_user",
          "type": "address"
        }
      ],
      "name": "getStakedTokensForAddress",
      "outputs": [
        {
          "internalType": "uint256",
          "name": "",
          "type": "uint256"
        }
      ],
      "stateMutability": "view",
      "type": "function"
    },
    {
      "inputs": [
        {
          "internalType": "uint256",
          "name": "_poolId",
          "type": "uint256"
        }
      ],
      "name": "getSymbol",
      "outputs": [
        {
          "internalType": "string",
          "name": "",
          "type": "string"
        }
      ],
      "stateMutability": "view",
      "type": "function"
    },
    {
      "inputs": [
        {
          "internalType": "uint256",
          "name": "_lastSeconds",
          "type": "uint256"
        }
      ],
      "name": "getWinnerAddressAmountsForLastSeconds",
      "outputs": [
        {
          "internalType": "uint256[]",
          "name": "",
          "type": "uint256[]"
        }
      ],
      "stateMutability": "view",
      "type": "function"
    },
    {
      "inputs": [
        {
          "internalType": "uint256",
          "name": "_lastSeconds",
          "type": "uint256"
        }
      ],
      "name": "getWinnerAddressIsUsdcForLastSeconds",
      "outputs": [
        {
          "internalType": "bool[]",
          "name": "",
          "type": "bool[]"
        }
      ],
      "stateMutability": "view",
      "type": "function"
    },
    {
      "inputs": [
        {
          "internalType": "uint256",
          "name": "_lastSeconds",
          "type": "uint256"
        }
      ],
      "name": "getWinnerAddressStakerAddressForLastSeconds",
      "outputs": [
        {
          "internalType": "address[]",
          "name": "",
          "type": "address[]"
        }
      ],
      "stateMutability": "view",
      "type": "function"
    },
    {
      "inputs": [],
      "name": "loserTokensPercent",
      "outputs": [
        {
          "internalType": "uint256",
          "name": "",
          "type": "uint256"
        }
      ],
      "stateMutability": "view",
      "type": "function"
    },
    {
      "inputs": [],
      "name": "owner",
      "outputs": [
        {
          "internalType": "address",
          "name": "",
          "type": "address"
        }
      ],
      "stateMutability": "view",
      "type": "function"
    },
    {
      "inputs": [],
      "name": "pool3TokensPercent",
      "outputs": [
        {
          "internalType": "uint256",
          "name": "",
          "type": "uint256"
        }
      ],
      "stateMutability": "view",
      "type": "function"
    },
    {
      "inputs": [],
      "name": "renounceOwnership",
      "outputs": [],
      "stateMutability": "nonpayable",
      "type": "function"
    },
    {
      "inputs": [
        {
          "internalType": "uint256",
          "name": "_battlingPhaseDuration",
          "type": "uint256"
        }
      ],
      "name": "setBattlingPhaseDuration",
      "outputs": [],
      "stateMutability": "nonpayable",
      "type": "function"
    },
    {
      "inputs": [
        {
          "internalType": "uint256",
          "name": "_bettingPhaseDuration",
          "type": "uint256"
        }
      ],
      "name": "setBettingPhaseDuration",
      "outputs": [],
      "stateMutability": "nonpayable",
      "type": "function"
    },
    {
      "inputs": [
        {
          "internalType": "uint256",
          "name": "_burnedTokensPercent",
          "type": "uint256"
        }
      ],
      "name": "setBurnedTokensPercent",
      "outputs": [],
      "stateMutability": "nonpayable",
      "type": "function"
    },
    {
      "inputs": [
        {
          "internalType": "uint256",
          "name": "_loserTokensPercent",
          "type": "uint256"
        }
      ],
      "name": "setLoserTokensPercent",
      "outputs": [],
      "stateMutability": "nonpayable",
      "type": "function"
    },
    {
      "inputs": [
        {
          "internalType": "uint256",
          "name": "_pool3TokensPercent",
          "type": "uint256"
        }
      ],
      "name": "setPool3TokensPercent",
      "outputs": [],
      "stateMutability": "nonpayable",
      "type": "function"
    },
    {
      "inputs": [
        {
          "internalType": "address",
          "name": "_tokenAddress",
          "type": "address"
        }
      ],
      "name": "setTokenAddress",
      "outputs": [],
      "stateMutability": "nonpayable",
      "type": "function"
    },
    {
      "inputs": [
        {
          "internalType": "uint256",
          "name": "_unstakeFee",
          "type": "uint256"
        }
      ],
      "name": "setUnstakeFee",
      "outputs": [],
      "stateMutability": "nonpayable",
      "type": "function"
    },
    {
      "inputs": [
        {
          "internalType": "address",
          "name": "_usdcAddress",
          "type": "address"
        }
      ],
      "name": "setUsdcAddress",
      "outputs": [],
      "stateMutability": "nonpayable",
      "type": "function"
    },
    {
      "inputs": [
        {
          "internalType": "uint256",
          "name": "_usdcStakeFee",
          "type": "uint256"
        }
      ],
      "name": "setUsdcStakeFee",
      "outputs": [],
      "stateMutability": "nonpayable",
      "type": "function"
    },
    {
      "inputs": [
        {
          "internalType": "uint256",
          "name": "_winnerTokensPercent",
          "type": "uint256"
        }
      ],
      "name": "setWinnerTokensPercent",
      "outputs": [],
      "stateMutability": "nonpayable",
      "type": "function"
    },
    {
      "inputs": [
        {
          "internalType": "uint256",
          "name": "_poolId",
          "type": "uint256"
        },
        {
          "internalType": "uint256",
          "name": "_amount",
          "type": "uint256"
        },
        {
          "internalType": "bool",
          "name": "_isUsdc",
          "type": "bool"
        }
      ],
      "name": "stake",
      "outputs": [],
      "stateMutability": "payable",
      "type": "function"
    },
    {
      "inputs": [
        {
          "internalType": "string",
          "name": "_symbol1",
          "type": "string"
        },
        {
          "internalType": "string",
          "name": "_price1",
          "type": "string"
        },
        {
          "internalType": "string",
          "name": "_symbol2",
          "type": "string"
        },
        {
          "internalType": "string",
          "name": "_price2",
          "type": "string"
        }
      ],
      "name": "startEpoch",
      "outputs": [],
      "stateMutability": "nonpayable",
      "type": "function"
    },
    {
      "inputs": [],
      "name": "timestampStartEpoch",
      "outputs": [
        {
          "internalType": "uint256",
          "name": "",
          "type": "uint256"
        }
      ],
      "stateMutability": "view",
      "type": "function"
    },
    {
      "inputs": [],
      "name": "token",
      "outputs": [
        {
          "internalType": "contract IERC20",
          "name": "",
          "type": "address"
        }
      ],
      "stateMutability": "view",
      "type": "function"
    },
    {
      "inputs": [
        {
          "internalType": "address",
          "name": "newOwner",
          "type": "address"
        }
      ],
      "name": "transferOwnership",
      "outputs": [],
      "stateMutability": "nonpayable",
      "type": "function"
    },
    {
      "inputs": [],
      "name": "unstakeFee",
      "outputs": [
        {
          "internalType": "uint256",
          "name": "",
          "type": "uint256"
        }
      ],
      "stateMutability": "view",
      "type": "function"
    },
    {
      "inputs": [],
      "name": "usdc",
      "outputs": [
        {
          "internalType": "contract IERC20",
          "name": "",
          "type": "address"
        }
      ],
      "stateMutability": "view",
      "type": "function"
    },
    {
      "inputs": [],
      "name": "usdcStakeFee",
      "outputs": [
        {
          "internalType": "uint256",
          "name": "",
          "type": "uint256"
        }
      ],
      "stateMutability": "view",
      "type": "function"
    },
    {
      "inputs": [],
      "name": "winnerTokensPercent",
      "outputs": [
        {
          "internalType": "uint256",
          "name": "",
          "type": "uint256"
        }
      ],
      "stateMutability": "view",
      "type": "function"
    },
    {
      "inputs": [],
      "name": "withdrawEth",
      "outputs": [],
      "stateMutability": "nonpayable",
      "type": "function"
    },
    {
      "inputs": [],
      "name": "withdrawToken",
      "outputs": [],
      "stateMutability": "nonpayable",
      "type": "function"
    },
    {
      "inputs": [],
      "name": "withdrawUsdc",
      "outputs": [],
      "stateMutability": "nonpayable",
      "type": "function"
    }
  ],
  "bytecode": "0x608060405261012c6004556102586005556104e2600655611f4060075561019060085561064060095560c8600a556064600b55600c805460ff191660011790553480156200004c57600080fd5b5062000058336200030d565b60018080556040805161010081018252600060e082018181528252825160208181018552828252808401919091528351908101845281815292820192909252606081018290526080810182905260a0810182905260c08101829052600e805493840181559091528051909160070260008051602062003abf83398151915201908190620000e6908262000402565b5060208201516001820190620000fd908262000402565b506040820151600282019062000114908262000402565b506060828101516003830155608080840151600484015560a080850151600585015560c0948501516006909401939093556040805161010081018252600060e082018181528252825160208181018552828252808401919091528351908101845281815292820192909252928301819052908201819052918101829052918201819052600e805460018101825591528151600790910260008051602062003abf83398151915201908190620001ca908262000402565b5060208201516001820190620001e1908262000402565b5060408201516002820190620001f8908262000402565b506060828101516003830155608080840151600484015560a080850151600585015560c0948501516006909401939093556040805161010081018252600060e082018181528252825160208181018552828252808401919091528351908101845281815292820192909252928301819052908201819052918101829052918201819052600e805460018101825591528151600790910260008051602062003abf83398151915201908190620002ae908262000402565b5060208201516001820190620002c5908262000402565b5060408201516002820190620002dc908262000402565b50606082015181600301556080820151816004015560a0820151816005015560c082015181600601555050620004ce565b600080546001600160a01b038381166001600160a01b0319831681178455604051919092169283917f8be0079c531659141344cd1fd0a4f28419497f9722a3daafe3b4186f6b6457e09190a35050565b634e487b7160e01b600052604160045260246000fd5b600181811c908216806200038857607f821691505b602082108103620003a957634e487b7160e01b600052602260045260246000fd5b50919050565b601f821115620003fd57600081815260208120601f850160051c81016020861015620003d85750805b601f850160051c820191505b81811015620003f957828155600101620003e4565b5050505b505050565b81516001600160401b038111156200041e576200041e6200035d565b62000436816200042f845462000373565b84620003af565b602080601f8311600181146200046e5760008415620004555750858301515b600019600386901b1c1916600185901b178555620003f9565b600085815260208120601f198616915b828110156200049f578886015182559484019460019091019084016200047e565b5085821015620004be5787850151600019600388901b60f8161c191681555b5050505050600190811b01905550565b6135e180620004de6000396000f3fe6080604052600436106102505760003560e01c80638bbbbbde11610139578063ba2f303b116100b6578063d8e660ed1161007a578063d8e660ed146106e6578063dc08e7691461071f578063eced02801461074c578063f2fde38b14610761578063fc0c546a14610781578063fee84d4e146107a157600080fd5b8063ba2f303b14610665578063bc770d061461067b578063ca628c781461069b578063d38bcdee146106b0578063d459a418146106d057600080fd5b806398c44b7d116100fd57806398c44b7d146105ce5780639a1dee2b146106045780639ee664b61461061a578063a0ef91df14610630578063ae3e04b11461064557600080fd5b80638bbbbbde146105445780638da5cb5b146105645780638ea97d2614610582578063949240d414610598578063989e9299146105b857600080fd5b8063422d0171116101d25780636164e45d116101965780636164e45d146104825780636418413c146104a257806364cc37fb146104c2578063715018a6146104e25780637d8704b1146104f75780638301151c1461052457600080fd5b8063422d0171146103d657806352916f25146103f6578063561b2463146104165780635a8b9599146104295780635cdef57d1461046c57600080fd5b80631f5c735b116102195780631f5c735b1461032457806325b511bd1461034857806326a4e8d21461035e5780632d0d02f21461037e5780633e413bee1461039e57600080fd5b806218a1161461025557806307ed92d01461027757806316ea2c5714610297578063175db3c4146102cd5780631d1c7fab146102f7575b600080fd5b34801561026157600080fd5b50610275610270366004612ec4565b6107b6565b005b34801561028357600080fd5b50610275610292366004612ec4565b6107c3565b3480156102a357600080fd5b506102b76102b2366004612ec4565b6107d0565b6040516102c49190612f01565b60405180910390f35b3480156102d957600080fd5b50600c546102e79060ff1681565b60405190151581526020016102c4565b34801561030357600080fd5b50610317610312366004612ec4565b610886565b6040516102c49190612f34565b34801561033057600080fd5b5061033a60065481565b6040519081526020016102c4565b34801561035457600080fd5b5061033a60055481565b34801561036a57600080fd5b50610275610379366004612f7a565b6109d8565b34801561038a57600080fd5b50610275610399366004612ff3565b610a02565b3480156103aa57600080fd5b506003546103be906001600160a01b031681565b6040516001600160a01b0390911681526020016102c4565b3480156103e257600080fd5b506102b76103f1366004612ec4565b610d51565b34801561040257600080fd5b50610275610411366004612ec4565b610d82565b6102756104243660046130c5565b610d8f565b34801561043557600080fd5b506102e7610444366004612f7a565b6001600160a01b03166000908152600f6020526040902060020154600160a01b900460ff1690565b34801561047857600080fd5b5061033a60095481565b34801561048e57600080fd5b5061027561049d366004612ec4565b611446565b3480156104ae57600080fd5b506102b76104bd366004612ec4565b612466565b3480156104ce57600080fd5b506102756104dd366004612ec4565b612497565b3480156104ee57600080fd5b506102756124a4565b34801561050357600080fd5b50610517610512366004612ec4565b6124b8565b6040516102c491906130fe565b34801561053057600080fd5b5061027561053f366004612ec4565b612616565b34801561055057600080fd5b5061027561055f366004612ec4565b612623565b34801561057057600080fd5b506000546001600160a01b03166103be565b34801561058e57600080fd5b5061033a600a5481565b3480156105a457600080fd5b5061033a6105b336600461313f565b612630565b3480156105c457600080fd5b5061033a60045481565b3480156105da57600080fd5b5061033a6105e9366004612f7a565b6001600160a01b03166000908152600f602052604090205490565b34801561061057600080fd5b5061033a600d5481565b34801561062657600080fd5b5061033a60075481565b34801561063c57600080fd5b50610275612690565b34801561065157600080fd5b50610275610660366004612ec4565b612734565b34801561067157600080fd5b5061033a60085481565b34801561068757600080fd5b50610275610696366004612ec4565b612741565b3480156106a757600080fd5b5061027561274e565b3480156106bc57600080fd5b506102756106cb366004612f7a565b612835565b3480156106dc57600080fd5b5061033a600b5481565b3480156106f257600080fd5b5061033a610701366004612f7a565b6001600160a01b03166000908152600f602052604090206001015490565b34801561072b57600080fd5b5061073f61073a366004612ec4565b61285f565b6040516102c4919061316f565b34801561075857600080fd5b5061033a612996565b34801561076d57600080fd5b5061027561077c366004612f7a565b6129ef565b34801561078d57600080fd5b506002546103be906001600160a01b031681565b3480156107ad57600080fd5b50610275612a65565b6107be612aaf565b600a55565b6107cb612aaf565b600555565b6060600e82815481106107e5576107e56131a7565b90600052602060002090600702016002018054610801906131bd565b80601f016020809104026020016040519081016040528092919081815260200182805461082d906131bd565b801561087a5780601f1061084f5761010080835404028352916020019161087a565b820191906000526020600020905b81548152906001019060200180831161085d57829003601f168201915b50505050509050919050565b60135460609042906000805b828110156108e7578386601383815481106108af576108af6131a7565b9060005260206000209060030201600101546108cb919061320d565b11156108df57816108db81613220565b9250505b600101610892565b5060008167ffffffffffffffff81111561090357610903613239565b60405190808252806020026020018201604052801561092c578160200160208202803683370190505b50905060005b838110156109ce5784876013838154811061094f5761094f6131a7565b90600052602060002090600302016001015461096b919061320d565b11156109c65760138181548110610984576109846131a7565b906000526020600020906003020160020160149054906101000a900460ff168282815181106109b5576109b56131a7565b911515602092830291909101909101525b600101610932565b5095945050505050565b6109e0612aaf565b600280546001600160a01b0319166001600160a01b0392909216919091179055565b610a0a612aaf565b600c5460ff16610a615760405162461bcd60e51b815260206004820152601b60248201527f43757272656e742065706f636820686173206e6f7420656e646564000000000060448201526064015b60405180910390fd5b600c805460ff19169055600e805489918991600090610a8257610a826131a7565b90600052602060002090600702016000019182610aa09291906132b2565b508585600e600081548110610ab757610ab76131a7565b90600052602060002090600702016001019182610ad59291906132b2565b508383600e600181548110610aec57610aec6131a7565b90600052602060002090600702016000019182610b0a9291906132b2565b508181600e600181548110610b2157610b216131a7565b90600052602060002090600702016001019182610b3f9291906132b2565b506000600e600081548110610b5657610b566131a7565b9060005260206000209060070201600301819055506000600e600181548110610b8157610b816131a7565b9060005260206000209060070201600301819055506000600e600281548110610bac57610bac6131a7565b9060005260206000209060070201600301819055506000600e600081548110610bd757610bd76131a7565b9060005260206000209060070201600401819055506000600e600181548110610c0257610c026131a7565b9060005260206000209060070201600401819055506000600e600281548110610c2d57610c2d6131a7565b9060005260206000209060070201600401819055506000600e600081548110610c5857610c586131a7565b9060005260206000209060070201600501819055506000600e600181548110610c8357610c836131a7565b9060005260206000209060070201600501819055506000600e600281548110610cae57610cae6131a7565b9060005260206000209060070201600501819055506000600e600081548110610cd957610cd96131a7565b9060005260206000209060070201600601819055506000600e600181548110610d0457610d046131a7565b9060005260206000209060070201600601819055506000600e600281548110610d2f57610d2f6131a7565b6000918252602090912060066007909202010155505042600d55505050505050565b6060600e8281548110610d6657610d666131a7565b90600052602060002090600702016001018054610801906131bd565b610d8a612aaf565b600b55565b610d97612b09565b600c5460ff1615610de25760405162461bcd60e51b8152602060048201526015602482015274115c1bd8da081b9bdd081cdd185c9d1959081e595d605a1b6044820152606401610a58565b610dea612996565b15610e375760405162461bcd60e51b815260206004820152601860248201527f42657474696e672070686173652068617320656e6465642e00000000000000006044820152606401610a58565b6002831115610e7a5760405162461bcd60e51b815260206004820152600f60248201526e125b9d985b1a59081c1bdbdb081259608a1b6044820152606401610a58565b826002148015610e875750805b15610ed45760405162461bcd60e51b815260206004820181905260248201527f43616e6e6f74207374616b65207573646320696e20746869726420706f6f6c2e6044820152606401610a58565b336000908152600f60205260409020600201546001600160a01b031615610f485760405162461bcd60e51b815260206004820152602260248201527f5573657220616c7265616479207374616b656420666f7220746869732065706f6044820152610c6d60f31b6064820152608401610a58565b818115610fd9576001841115610f925760405162461bcd60e51b815260206004820152600f60248201526e125b9d985b1a59081c1bdbdb081259608a1b6044820152606401610a58565b612710600b54612710610fa5919061336d565b610faf9085613380565b610fb99190613397565b600354909150610fd4906001600160a01b0316333086612b62565b610ff1565b600254610ff1906001600160a01b0316333086612b62565b600081116110415760405162461bcd60e51b815260206004820152601d60248201527f4d757374207374616b65206d6f7265207468616e203020746f6b656e730000006044820152606401610a58565b60408051608081018252858152602080820184815233838501818152871515606086019081526000928352600f909452949020835181559051600182015592516002909301805491511515600160a01b026001600160a81b03199092166001600160a01b03949094169390931717909155826110bd57836110c0565b60005b600e86815481106110d3576110d36131a7565b906000526020600020906007020160030160008282546110f3919061320d565b90915550839050611105576000611107565b835b600e868154811061111a5761111a6131a7565b9060005260206000209060070201600401600082825461113a919061320d565b9091555083905061114c57600161114f565b60005b60ff16600e8681548110611165576111656131a7565b90600052602060002090600702016005016000828254611185919061320d565b9091555083905061119757600061119a565b60015b60ff16600e86815481106111b0576111b06131a7565b906000526020600020906007020160060160008282546111d0919061320d565b909155505060008590036112a2576010805460018101825560009190915281517f1b6847dc741a1b0cd08d278845f9d819d87b734759afb55fe2de5cb82a9ae67260039092029182015560208201517f1b6847dc741a1b0cd08d278845f9d819d87b734759afb55fe2de5cb82a9ae67382015560408201517f1b6847dc741a1b0cd08d278845f9d819d87b734759afb55fe2de5cb82a9ae674909101805460608401516001600160a01b039093166001600160a81b031990911617600160a01b92151592909202919091179055611436565b8460010361136e576011805460018101825560009190915281517f31ecc21a745e3968a04e9570e4425bc18fa8019c68028196b546d1669c200c6860039092029182015560208201517f31ecc21a745e3968a04e9570e4425bc18fa8019c68028196b546d1669c200c6982015560408201517f31ecc21a745e3968a04e9570e4425bc18fa8019c68028196b546d1669c200c6a909101805460608401516001600160a01b039093166001600160a81b031990911617600160a01b92151592909202919091179055611436565b84600203611436576012805460018101825560009190915281517fbb8a6a4669ba250d26cd7a459eca9d215f8307e33aebe50379bc5a3617ec344460039092029182015560208201517fbb8a6a4669ba250d26cd7a459eca9d215f8307e33aebe50379bc5a3617ec344582015560408201517fbb8a6a4669ba250d26cd7a459eca9d215f8307e33aebe50379bc5a3617ec3446909101805460608401516001600160a01b039093166001600160a81b031990911617600160a01b921515929092029190911790555b505061144160018055565b505050565b61144e612aaf565b611456612b09565b600c5460ff16156114a95760405162461bcd60e51b815260206004820152601b60248201527f43757272656e742065706f636820616c726561647920656e64656400000000006044820152606401610a58565b6114b1612996565b6002146115005760405162461bcd60e51b815260206004820181905260248201527f45706f6368206e6f7420726561647920746f20626520656e646564207965742e6044820152606401610a58565b600c805460ff1916600190811790915560009061151e90839061336d565b90506000811561153057601154611534565b6010545b9050600083156115465760115461154a565b6010545b905060405180602001604052806000815250600e848154811061156f5761156f6131a7565b9060005260206000209060070201600201908161158c91906133b9565b50600e84815481106115a0576115a06131a7565b9060005260206000209060070201600001600e85815481106115c4576115c46131a7565b906000526020600020906007020160020190816115e19190613473565b5081600003611616576115f660106000612e77565b61160260116000612e77565b61160e60126000612e77565b50505061245a565b8060000361184f5760005b8281101561184257600084156116575760118281548110611644576116446131a7565b9060005260206000209060030201611679565b6010828154811061166a5761166a6131a7565b90600052602060002090600302015b6040805160808101825282548152600183015460208201526002909201546001600160a01b03811691830191909152600160a01b900460ff161580156060830152909150611743576003546040808301516020840151915163a9059cbb60e01b81526001600160a01b039093169263a9059cbb926116fa9291600401613540565b6020604051808303816000875af1158015611719573d6000803e3d6000fd5b505050506040513d601f19601f8201168201806040525081019061173d9190613559565b506117c1565b6002546040808301516020840151915163a9059cbb60e01b81526001600160a01b039093169263a9059cbb9261177c9291600401613540565b6020604051808303816000875af115801561179b573d6000803e3d6000fd5b505050506040513d601f19601f820116820180604052508101906117bf9190613559565b505b604080516080810182526000808252602080830182815283850183815260608501848152968601516001600160a01b039081168552600f9093529490922092518355905160018381019190915592516002909201805494511515600160a01b026001600160a81b031990951692909116919091179290921790915501611621565b506115f660106000612e77565b60008060005b84811015611ac3576000861561188b5760118281548110611878576118786131a7565b90600052602060002090600302016118ad565b6010828154811061189e5761189e6131a7565b90600052602060002090600302015b60408051608081018252825481526001830154602082018190526002909301546001600160a01b03811692820192909252600160a01b90910460ff16151560608201526006549092506000916127109161190691613380565b6119109190613397565b90506000818360200151611924919061336d565b90508260600151156119ba57600354604080850151905163a9059cbb60e01b81526001600160a01b039092169163a9059cbb91611965918590600401613540565b6020604051808303816000875af1158015611984573d6000803e3d6000fd5b505050506040513d601f19601f820116820180604052508101906119a89190613559565b506119b3828661320d565b9450611a40565b600254604080850151905163a9059cbb60e01b81526001600160a01b039092169163a9059cbb916119ef918590600401613540565b6020604051808303816000875af1158015611a0e573d6000803e3d6000fd5b505050506040513d601f19601f82011682018060405250810190611a329190613559565b50611a3d828761320d565b95505b5050604080516080810182526000808252602080830182815283850183815260608501848152968601516001600160a01b039081168552600f9093529490922092518355905160018381019190915592516002909201805494511515600160a01b026001600160a81b031990951692909116919091179290921790915501611855565b50600061271060075484611ad79190613380565b611ae19190613397565b9050600061271060075484611af69190613380565b611b009190613397565b90506000806000600e8b81548110611b1a57611b1a6131a7565b9060005260206000209060070201600501541115611b6557600e8a81548110611b4557611b456131a7565b90600052602060002090600702016005015484611b629190613397565b91505b6000600e8b81548110611b7a57611b7a6131a7565b9060005260206000209060070201600601541115611bc557600e8a81548110611ba557611ba56131a7565b90600052602060002090600702016006015483611bc29190613397565b90505b60005b87811015611fcf5760008b15611bfe5760118281548110611beb57611beb6131a7565b9060005260206000209060030201611c20565b60108281548110611c1157611c116131a7565b90600052602060002090600302015b6040805160808101825282548152600183015460208201526002909201546001600160a01b03811691830191909152600160a01b900460ff161580156060830152909150611ddd57600354604082015160208301516001600160a01b039092169163a9059cbb9190611c9390879061320d565b6040518363ffffffff1660e01b8152600401611cb0929190613540565b6020604051808303816000875af1158015611ccf573d6000803e3d6000fd5b505050506040513d601f19601f82011682018060405250810190611cf39190613559565b50604080516080810182528481524260208201908152838301516001600160a01b0390811693830193845260608086015115159084019081526013805460018101825560009190915293517f66de8ffda797e3de9c05e8fc57b3bf0ec28a930d40b0d285d93c06501cf6a09060039095029485015591517f66de8ffda797e3de9c05e8fc57b3bf0ec28a930d40b0d285d93c06501cf6a09184015592517f66de8ffda797e3de9c05e8fc57b3bf0ec28a930d40b0d285d93c06501cf6a09290920180549151929093166001600160a81b031990911617600160a01b91151591909102179055611f4e565b600254604082015160208301516001600160a01b039092169163a9059cbb9190611e0890889061320d565b6040518363ffffffff1660e01b8152600401611e25929190613540565b6020604051808303816000875af1158015611e44573d6000803e3d6000fd5b505050506040513d601f19601f82011682018060405250810190611e689190613559565b50604080516080810182528581524260208201908152838301516001600160a01b0390811693830193845260608086015115159084019081526013805460018101825560009190915293517f66de8ffda797e3de9c05e8fc57b3bf0ec28a930d40b0d285d93c06501cf6a09060039095029485015591517f66de8ffda797e3de9c05e8fc57b3bf0ec28a930d40b0d285d93c06501cf6a09184015592517f66de8ffda797e3de9c05e8fc57b3bf0ec28a930d40b0d285d93c06501cf6a09290920180549151929093166001600160a81b031990911617600160a01b911515919091021790555b604080516080810182526000808252602080830182815283850183815260608501848152968601516001600160a01b039081168552600f9093529490922092518355905160018381019190915592516002909201805494511515600160a01b026001600160a81b031990951692909116919091179290921790915501611bc8565b50600061271060085488611fe39190613380565b611fed9190613397565b90506000612710600854886120029190613380565b61200c9190613397565b60035460405163a9059cbb60e01b81529192506001600160a01b03169063a9059cbb906120419061dead908590600401613540565b6020604051808303816000875af1158015612060573d6000803e3d6000fd5b505050506040513d601f19601f820116820180604052508101906120849190613559565b5060025460405163a9059cbb60e01b81526001600160a01b039091169063a9059cbb906120b99061dead908690600401613540565b6020604051808303816000875af11580156120d8573d6000803e3d6000fd5b505050506040513d601f19601f820116820180604052508101906120fc9190613559565b5060125460095460009061271090612114908c613380565b61211e9190613397565b905060006127106009548b6121339190613380565b61213d9190613397565b90506000806000600e600281548110612158576121586131a7565b90600052602060002090600702016005015411156121a457600e600281548110612184576121846131a7565b906000526020600020906007020160050154846121a19190613397565b91505b6000600e6002815481106121ba576121ba6131a7565b906000526020600020906007020160060154111561220657600e6002815481106121e6576121e66131a7565b906000526020600020906007020160060154836122039190613397565b90505b60005b8581101561242457600060128281548110612226576122266131a7565b600091825260209182902060408051608081018252600393909302909101805483526001810154938301939093526002909201546001600160a01b03811692820192909252600160a01b90910460ff16158015606083015290915061231657600354604082015160208301516001600160a01b039092169163a9059cbb91906122b090879061320d565b6040518363ffffffff1660e01b81526004016122cd929190613540565b6020604051808303816000875af11580156122ec573d6000803e3d6000fd5b505050506040513d601f19601f820116820180604052508101906123109190613559565b506123a3565b600254604082015160208301516001600160a01b039092169163a9059cbb919061234190889061320d565b6040518363ffffffff1660e01b815260040161235e929190613540565b6020604051808303816000875af115801561237d573d6000803e3d6000fd5b505050506040513d601f19601f820116820180604052508101906123a19190613559565b505b604080516080810182526000808252602080830182815283850183815260608501848152968601516001600160a01b039081168552600f9093529490922092518355905160018381019190915592516002909201805494511515600160a01b026001600160a81b031990951692909116919091179290921790915501612209565b5061243160106000612e77565b61243d60116000612e77565b61244960126000612e77565b505050505050505050505050505050505b61246360018055565b50565b6060600e828154811061247b5761247b6131a7565b90600052602060002090600702016000018054610801906131bd565b61249f612aaf565b600955565b6124ac612aaf565b6124b66000612bc2565b565b60135460609042906000805b82811015612519578386601383815481106124e1576124e16131a7565b9060005260206000209060030201600101546124fd919061320d565b1115612511578161250d81613220565b9250505b6001016124c4565b5060008167ffffffffffffffff81111561253557612535613239565b60405190808252806020026020018201604052801561255e578160200160208202803683370190505b50905060005b838110156109ce57848760138381548110612581576125816131a7565b90600052602060002090600302016001015461259d919061320d565b111561260e57601381815481106125b6576125b66131a7565b906000526020600020906003020160020160009054906101000a90046001600160a01b03168282815181106125ed576125ed6131a7565b60200260200101906001600160a01b031690816001600160a01b0316815250505b600101612564565b61261e612aaf565b600455565b61262b612aaf565b600755565b60008161266157600e838154811061264a5761264a6131a7565b906000526020600020906007020160030154612687565b600e8381548110612674576126746131a7565b9060005260206000209060070201600401545b90505b92915050565b612698612aaf565b6126a0612b09565b604051600090339047908381818185875af1925050503d80600081146126e2576040519150601f19603f3d011682016040523d82523d6000602084013e6126e7565b606091505b505090508061272a5760405162461bcd60e51b815260206004820152600f60248201526e151c985b9cd9995c8819985a5b1959608a1b6044820152606401610a58565b506124b660018055565b61273c612aaf565b600655565b612749612aaf565b600855565b612756612aaf565b61275e612b09565b6002546040516370a0823160e01b81523060048201526001600160a01b039091169063a9059cbb90339083906370a08231906024015b602060405180830381865afa1580156127b1573d6000803e3d6000fd5b505050506040513d601f19601f820116820180604052508101906127d59190613576565b6040518363ffffffff1660e01b81526004016127f2929190613540565b6020604051808303816000875af1158015612811573d6000803e3d6000fd5b505050506040513d601f19601f8201168201806040525081019061272a9190613559565b61283d612aaf565b600380546001600160a01b0319166001600160a01b0392909216919091179055565b60135460609042906000805b828110156128c057838660138381548110612888576128886131a7565b9060005260206000209060030201600101546128a4919061320d565b11156128b857816128b481613220565b9250505b60010161286b565b5060008167ffffffffffffffff8111156128dc576128dc613239565b604051908082528060200260200182016040528015612905578160200160208202803683370190505b50905060005b838110156109ce57848760138381548110612928576129286131a7565b906000526020600020906003020160010154612944919061320d565b111561298e576013818154811061295d5761295d6131a7565b906000526020600020906003020160000154828281518110612981576129816131a7565b6020026020010181815250505b60010161290b565b600080600d54426129a7919061336d565b90506005546004546129b9919061320d565b8111806129c85750600c5460ff165b156129d557600291505090565b6004548111156129e757600191505090565b600091505090565b6129f7612aaf565b6001600160a01b038116612a5c5760405162461bcd60e51b815260206004820152602660248201527f4f776e61626c653a206e6577206f776e657220697320746865207a65726f206160448201526564647265737360d01b6064820152608401610a58565b61246381612bc2565b612a6d612aaf565b612a75612b09565b6003546040516370a0823160e01b81523060048201526001600160a01b039091169063a9059cbb90339083906370a0823190602401612794565b6000546001600160a01b031633146124b65760405162461bcd60e51b815260206004820181905260248201527f4f776e61626c653a2063616c6c6572206973206e6f7420746865206f776e65726044820152606401610a58565b600260015403612b5b5760405162461bcd60e51b815260206004820152601f60248201527f5265656e7472616e637947756172643a207265656e7472616e742063616c6c006044820152606401610a58565b6002600155565b604080516001600160a01b0385811660248301528416604482015260648082018490528251808303909101815260849091019091526020810180516001600160e01b03166323b872dd60e01b179052612bbc908590612c12565b50505050565b600080546001600160a01b038381166001600160a01b0319831681178455604051919092169283917f8be0079c531659141344cd1fd0a4f28419497f9722a3daafe3b4186f6b6457e09190a35050565b6000612c67826040518060400160405280602081526020017f5361666545524332303a206c6f772d6c6576656c2063616c6c206661696c6564815250856001600160a01b0316612ce79092919063ffffffff16565b9050805160001480612c88575080806020019051810190612c889190613559565b6114415760405162461bcd60e51b815260206004820152602a60248201527f5361666545524332303a204552433230206f7065726174696f6e20646964206e6044820152691bdd081cdd58d8d9595960b21b6064820152608401610a58565b6060612cf68484600085612cfe565b949350505050565b606082471015612d5f5760405162461bcd60e51b815260206004820152602660248201527f416464726573733a20696e73756666696369656e742062616c616e636520666f6044820152651c8818d85b1b60d21b6064820152608401610a58565b600080866001600160a01b03168587604051612d7b919061358f565b60006040518083038185875af1925050503d8060008114612db8576040519150601f19603f3d011682016040523d82523d6000602084013e612dbd565b606091505b5091509150612dce87838387612dd9565b979650505050505050565b60608315612e48578251600003612e41576001600160a01b0385163b612e415760405162461bcd60e51b815260206004820152601d60248201527f416464726573733a2063616c6c20746f206e6f6e2d636f6e74726163740000006044820152606401610a58565b5081612cf6565b612cf68383815115612e5d5781518083602001fd5b8060405162461bcd60e51b8152600401610a589190612f01565b508054600082556003029060005260206000209081019061246391905b80821115612ec057600080825560018201556002810180546001600160a81b0319169055600301612e94565b5090565b600060208284031215612ed657600080fd5b5035919050565b60005b83811015612ef8578181015183820152602001612ee0565b50506000910152565b6020815260008251806020840152612f20816040850160208701612edd565b601f01601f19169190910160400192915050565b6020808252825182820181905260009190848201906040850190845b81811015612f6e578351151583529284019291840191600101612f50565b50909695505050505050565b600060208284031215612f8c57600080fd5b81356001600160a01b0381168114612fa357600080fd5b9392505050565b60008083601f840112612fbc57600080fd5b50813567ffffffffffffffff811115612fd457600080fd5b602083019150836020828501011115612fec57600080fd5b9250929050565b6000806000806000806000806080898b03121561300f57600080fd5b883567ffffffffffffffff8082111561302757600080fd5b6130338c838d01612faa565b909a50985060208b013591508082111561304c57600080fd5b6130588c838d01612faa565b909850965060408b013591508082111561307157600080fd5b61307d8c838d01612faa565b909650945060608b013591508082111561309657600080fd5b506130a38b828c01612faa565b999c989b5096995094979396929594505050565b801515811461246357600080fd5b6000806000606084860312156130da57600080fd5b833592506020840135915060408401356130f3816130b7565b809150509250925092565b6020808252825182820181905260009190848201906040850190845b81811015612f6e5783516001600160a01b03168352928401929184019160010161311a565b6000806040838503121561315257600080fd5b823591506020830135613164816130b7565b809150509250929050565b6020808252825182820181905260009190848201906040850190845b81811015612f6e5783518352928401929184019160010161318b565b634e487b7160e01b600052603260045260246000fd5b600181811c908216806131d157607f821691505b6020821081036131f157634e487b7160e01b600052602260045260246000fd5b50919050565b634e487b7160e01b600052601160045260246000fd5b8082018082111561268a5761268a6131f7565b600060018201613232576132326131f7565b5060010190565b634e487b7160e01b600052604160045260246000fd5b601f82111561144157600081815260208120601f850160051c810160208610156132765750805b601f850160051c820191505b8181101561329557828155600101613282565b505050505050565b600019600383901b1c191660019190911b1790565b67ffffffffffffffff8311156132ca576132ca613239565b6132de836132d883546131bd565b8361324f565b6000601f84116001811461330c57600085156132fa5750838201355b613304868261329d565b845550613366565b600083815260209020601f19861690835b8281101561333d578685013582556020948501946001909201910161331d565b508682101561335a5760001960f88860031b161c19848701351681555b505060018560011b0183555b5050505050565b8181038181111561268a5761268a6131f7565b808202811582820484141761268a5761268a6131f7565b6000826133b457634e487b7160e01b600052601260045260246000fd5b500490565b815167ffffffffffffffff8111156133d3576133d3613239565b6133e7816133e184546131bd565b8461324f565b602080601f83116001811461341657600084156134045750858301515b61340e858261329d565b865550613295565b600085815260208120601f198616915b8281101561344557888601518255948401946001909101908401613426565b50858210156134635787850151600019600388901b60f8161c191681555b5050505050600190811b01905550565b81810361347e575050565b61348882546131bd565b67ffffffffffffffff8111156134a0576134a0613239565b6134ae816133e184546131bd565b6000601f8211600181146134dc57600083156134ca5750848201545b6134d4848261329d565b855550613366565b600085815260209020601f19841690600086815260209020845b8381101561351657828601548255600195860195909101906020016134f6565b50858310156134635793015460001960f8600387901b161c19169092555050600190811b01905550565b6001600160a01b03929092168252602082015260400190565b60006020828403121561356b57600080fd5b8151612fa3816130b7565b60006020828403121561358857600080fd5b5051919050565b600082516135a1818460208701612edd565b919091019291505056fea2646970667358221220e5ab4e1ac3d2e3da99cf503ce7b45c6f328f4936a071ebf9d4d89f18808d6f9064736f6c63430008120033bb7b4a454dc3493923482f07822329ed19e8244eff582cc204f8554c3620c3fd",
  "linkReferences": {},
  "deployedLinkReferences": {}
}