{
  "_format": "hh-sol-artifact-1",
  "contractName": "PoolMaster",
  "sourceName": "contracts/PoolMaster.sol",
  "abi": [
    {
      "inputs": [],
      "stateMutability": "nonpayable",
      "type": "constructor"
    },
    {
      "anonymous": false,
      "inputs": [
        {
          "indexed": true,
          "internalType": "address",
          "name": "previousOwner",
          "type": "address"
        },
        {
          "indexed": true,
          "internalType": "address",
          "name": "newOwner",
          "type": "address"
        }
      ],
      "name": "OwnershipTransferred",
      "type": "event"
    },
    {
      "inputs": [],
      "name": "battlingPhaseDuration",
      "outputs": [
        {
          "internalType": "uint256",
          "name": "",
          "type": "uint256"
        }
      ],
      "stateMutability": "view",
      "type": "function"
    },
    {
      "inputs": [],
      "name": "bettingPhaseDuration",
      "outputs": [
        {
          "internalType": "uint256",
          "name": "",
          "type": "uint256"
        }
      ],
      "stateMutability": "view",
      "type": "function"
    },
    {
      "inputs": [],
      "name": "burnedTokensPercent",
      "outputs": [
        {
          "internalType": "uint256",
          "name": "",
          "type": "uint256"
        }
      ],
      "stateMutability": "view",
      "type": "function"
    },
    {
      "inputs": [
        {
          "internalType": "uint256",
          "name": "_poolWinnerId",
          "type": "uint256"
        }
      ],
      "name": "endEpoch",
      "outputs": [],
      "stateMutability": "nonpayable",
      "type": "function"
    },
    {
      "inputs": [],
      "name": "epochEnded",
      "outputs": [
        {
          "internalType": "bool",
          "name": "",
          "type": "bool"
        }
      ],
      "stateMutability": "view",
      "type": "function"
    },
    {
      "inputs": [
        {
          "internalType": "uint256",
          "name": "_poolId",
          "type": "uint256"
        }
      ],
      "name": "getInitialPrice",
      "outputs": [
        {
          "internalType": "string",
          "name": "",
          "type": "string"
        }
      ],
      "stateMutability": "view",
      "type": "function"
    },
    {
      "inputs": [
        {
          "internalType": "address",
          "name": "_user",
          "type": "address"
        }
      ],
      "name": "getIsUsdcForAddress",
      "outputs": [
        {
          "internalType": "bool",
          "name": "",
          "type": "bool"
        }
      ],
      "stateMutability": "view",
      "type": "function"
    },
    {
      "inputs": [
        {
          "internalType": "uint256",
          "name": "_poolId",
          "type": "uint256"
        }
      ],
      "name": "getLastWinner",
      "outputs": [
        {
          "internalType": "string",
          "name": "",
          "type": "string"
        }
      ],
      "stateMutability": "view",
      "type": "function"
    },
    {
      "inputs": [],
      "name": "getPhase",
      "outputs": [
        {
          "internalType": "uint256",
          "name": "",
          "type": "uint256"
        }
      ],
      "stateMutability": "view",
      "type": "function"
    },
    {
      "inputs": [
        {
          "internalType": "address",
          "name": "_user",
          "type": "address"
        }
      ],
      "name": "getPoolIdForAddress",
      "outputs": [
        {
          "internalType": "uint256",
          "name": "",
          "type": "uint256"
        }
      ],
      "stateMutability": "view",
      "type": "function"
    },
    {
      "inputs": [
        {
          "internalType": "uint256",
          "name": "_poolId",
          "type": "uint256"
        },
        {
          "internalType": "bool",
          "name": "_isUsdc",
          "type": "bool"
        }
      ],
      "name": "getStakedTokens",
      "outputs": [
        {
          "internalType": "uint256",
          "name": "",
          "type": "uint256"
        }
      ],
      "stateMutability": "view",
      "type": "function"
    },
    {
      "inputs": [
        {
          "internalType": "address",
          "name": "_user",
          "type": "address"
        }
      ],
      "name": "getStakedTokensForAddress",
      "outputs": [
        {
          "internalType": "uint256",
          "name": "",
          "type": "uint256"
        }
      ],
      "stateMutability": "view",
      "type": "function"
    },
    {
      "inputs": [
        {
          "internalType": "uint256",
          "name": "_poolId",
          "type": "uint256"
        }
      ],
      "name": "getSymbol",
      "outputs": [
        {
          "internalType": "string",
          "name": "",
          "type": "string"
        }
      ],
      "stateMutability": "view",
      "type": "function"
    },
    {
      "inputs": [
        {
          "internalType": "uint256",
          "name": "_lastSeconds",
          "type": "uint256"
        }
      ],
      "name": "getWinnerAddressAmountsForLastSeconds",
      "outputs": [
        {
          "internalType": "uint256[]",
          "name": "",
          "type": "uint256[]"
        }
      ],
      "stateMutability": "view",
      "type": "function"
    },
    {
      "inputs": [
        {
          "internalType": "uint256",
          "name": "_lastSeconds",
          "type": "uint256"
        }
      ],
      "name": "getWinnerAddressIsUsdcForLastSeconds",
      "outputs": [
        {
          "internalType": "bool[]",
          "name": "",
          "type": "bool[]"
        }
      ],
      "stateMutability": "view",
      "type": "function"
    },
    {
      "inputs": [
        {
          "internalType": "uint256",
          "name": "_lastSeconds",
          "type": "uint256"
        }
      ],
      "name": "getWinnerAddressStakerAddressForLastSeconds",
      "outputs": [
        {
          "internalType": "address[]",
          "name": "",
          "type": "address[]"
        }
      ],
      "stateMutability": "view",
      "type": "function"
    },
    {
      "inputs": [],
      "name": "loserTokensPercent",
      "outputs": [
        {
          "internalType": "uint256",
          "name": "",
          "type": "uint256"
        }
      ],
      "stateMutability": "view",
      "type": "function"
    },
    {
      "inputs": [],
      "name": "owner",
      "outputs": [
        {
          "internalType": "address",
          "name": "",
          "type": "address"
        }
      ],
      "stateMutability": "view",
      "type": "function"
    },
    {
      "inputs": [],
      "name": "pool3TokensPercent",
      "outputs": [
        {
          "internalType": "uint256",
          "name": "",
          "type": "uint256"
        }
      ],
      "stateMutability": "view",
      "type": "function"
    },
    {
      "inputs": [],
      "name": "renounceOwnership",
      "outputs": [],
      "stateMutability": "nonpayable",
      "type": "function"
    },
    {
      "inputs": [
        {
          "internalType": "uint256",
          "name": "_battlingPhaseDuration",
          "type": "uint256"
        }
      ],
      "name": "setBattlingPhaseDuration",
      "outputs": [],
      "stateMutability": "nonpayable",
      "type": "function"
    },
    {
      "inputs": [
        {
          "internalType": "uint256",
          "name": "_bettingPhaseDuration",
          "type": "uint256"
        }
      ],
      "name": "setBettingPhaseDuration",
      "outputs": [],
      "stateMutability": "nonpayable",
      "type": "function"
    },
    {
      "inputs": [
        {
          "internalType": "uint256",
          "name": "_burnedTokensPercent",
          "type": "uint256"
        }
      ],
      "name": "setBurnedTokensPercent",
      "outputs": [],
      "stateMutability": "nonpayable",
      "type": "function"
    },
    {
      "inputs": [
        {
          "internalType": "uint256",
          "name": "_loserTokensPercent",
          "type": "uint256"
        }
      ],
      "name": "setLoserTokensPercent",
      "outputs": [],
      "stateMutability": "nonpayable",
      "type": "function"
    },
    {
      "inputs": [
        {
          "internalType": "uint256",
          "name": "_pool3TokensPercent",
          "type": "uint256"
        }
      ],
      "name": "setPool3TokensPercent",
      "outputs": [],
      "stateMutability": "nonpayable",
      "type": "function"
    },
    {
      "inputs": [
        {
          "internalType": "address",
          "name": "_tokenAddress",
          "type": "address"
        }
      ],
      "name": "setTokenAddress",
      "outputs": [],
      "stateMutability": "nonpayable",
      "type": "function"
    },
    {
      "inputs": [
        {
          "internalType": "uint256",
          "name": "_unstakeFee",
          "type": "uint256"
        }
      ],
      "name": "setUnstakeFee",
      "outputs": [],
      "stateMutability": "nonpayable",
      "type": "function"
    },
    {
      "inputs": [
        {
          "internalType": "address",
          "name": "_usdcAddress",
          "type": "address"
        }
      ],
      "name": "setUsdcAddress",
      "outputs": [],
      "stateMutability": "nonpayable",
      "type": "function"
    },
    {
      "inputs": [
        {
          "internalType": "uint256",
          "name": "_usdcStakeFee",
          "type": "uint256"
        }
      ],
      "name": "setUsdcStakeFee",
      "outputs": [],
      "stateMutability": "nonpayable",
      "type": "function"
    },
    {
      "inputs": [
        {
          "internalType": "uint256",
          "name": "_winnerTokensPercent",
          "type": "uint256"
        }
      ],
      "name": "setWinnerTokensPercent",
      "outputs": [],
      "stateMutability": "nonpayable",
      "type": "function"
    },
    {
      "inputs": [
        {
          "internalType": "uint256",
          "name": "_poolId",
          "type": "uint256"
        },
        {
          "internalType": "uint256",
          "name": "_amount",
          "type": "uint256"
        },
        {
          "internalType": "bool",
          "name": "_isUsdc",
          "type": "bool"
        }
      ],
      "name": "stake",
      "outputs": [],
      "stateMutability": "payable",
      "type": "function"
    },
    {
      "inputs": [
        {
          "internalType": "string",
          "name": "_symbol1",
          "type": "string"
        },
        {
          "internalType": "string",
          "name": "_price1",
          "type": "string"
        },
        {
          "internalType": "string",
          "name": "_symbol2",
          "type": "string"
        },
        {
          "internalType": "string",
          "name": "_price2",
          "type": "string"
        }
      ],
      "name": "startEpoch",
      "outputs": [],
      "stateMutability": "nonpayable",
      "type": "function"
    },
    {
      "inputs": [],
      "name": "timestampStartEpoch",
      "outputs": [
        {
          "internalType": "uint256",
          "name": "",
          "type": "uint256"
        }
      ],
      "stateMutability": "view",
      "type": "function"
    },
    {
      "inputs": [],
      "name": "token",
      "outputs": [
        {
          "internalType": "contract IERC20",
          "name": "",
          "type": "address"
        }
      ],
      "stateMutability": "view",
      "type": "function"
    },
    {
      "inputs": [
        {
          "internalType": "address",
          "name": "newOwner",
          "type": "address"
        }
      ],
      "name": "transferOwnership",
      "outputs": [],
      "stateMutability": "nonpayable",
      "type": "function"
    },
    {
      "inputs": [],
      "name": "unstakeFee",
      "outputs": [
        {
          "internalType": "uint256",
          "name": "",
          "type": "uint256"
        }
      ],
      "stateMutability": "view",
      "type": "function"
    },
    {
      "inputs": [],
      "name": "usdc",
      "outputs": [
        {
          "internalType": "contract IERC20",
          "name": "",
          "type": "address"
        }
      ],
      "stateMutability": "view",
      "type": "function"
    },
    {
      "inputs": [],
      "name": "usdcStakeFee",
      "outputs": [
        {
          "internalType": "uint256",
          "name": "",
          "type": "uint256"
        }
      ],
      "stateMutability": "view",
      "type": "function"
    },
    {
      "inputs": [],
      "name": "winnerTokensPercent",
      "outputs": [
        {
          "internalType": "uint256",
          "name": "",
          "type": "uint256"
        }
      ],
      "stateMutability": "view",
      "type": "function"
    },
    {
      "inputs": [],
      "name": "withdrawEth",
      "outputs": [],
      "stateMutability": "nonpayable",
      "type": "function"
    },
    {
      "inputs": [],
      "name": "withdrawToken",
      "outputs": [],
      "stateMutability": "nonpayable",
      "type": "function"
    },
    {
      "inputs": [],
      "name": "withdrawUsdc",
      "outputs": [],
      "stateMutability": "nonpayable",
      "type": "function"
    }
  ],
  "bytecode": "0x608060405261012c6004556102586005556104e2600655611f4060075561019060085561064060095560c8600a556064600b55600c805460ff191660011790553480156200004c57600080fd5b5062000058336200030d565b60018080556040805161010081018252600060e082018181528252825160208181018552828252808401919091528351908101845281815292820192909252606081018290526080810182905260a0810182905260c08101829052600e805493840181559091528051909160070260008051602062003ac883398151915201908190620000e6908262000402565b5060208201516001820190620000fd908262000402565b506040820151600282019062000114908262000402565b506060828101516003830155608080840151600484015560a080850151600585015560c0948501516006909401939093556040805161010081018252600060e082018181528252825160208181018552828252808401919091528351908101845281815292820192909252928301819052908201819052918101829052918201819052600e805460018101825591528151600790910260008051602062003ac883398151915201908190620001ca908262000402565b5060208201516001820190620001e1908262000402565b5060408201516002820190620001f8908262000402565b506060828101516003830155608080840151600484015560a080850151600585015560c0948501516006909401939093556040805161010081018252600060e082018181528252825160208181018552828252808401919091528351908101845281815292820192909252928301819052908201819052918101829052918201819052600e805460018101825591528151600790910260008051602062003ac883398151915201908190620002ae908262000402565b5060208201516001820190620002c5908262000402565b5060408201516002820190620002dc908262000402565b50606082015181600301556080820151816004015560a0820151816005015560c082015181600601555050620004ce565b600080546001600160a01b038381166001600160a01b0319831681178455604051919092169283917f8be0079c531659141344cd1fd0a4f28419497f9722a3daafe3b4186f6b6457e09190a35050565b634e487b7160e01b600052604160045260246000fd5b600181811c908216806200038857607f821691505b602082108103620003a957634e487b7160e01b600052602260045260246000fd5b50919050565b601f821115620003fd57600081815260208120601f850160051c81016020861015620003d85750805b601f850160051c820191505b81811015620003f957828155600101620003e4565b5050505b505050565b81516001600160401b038111156200041e576200041e6200035d565b62000436816200042f845462000373565b84620003af565b602080601f8311600181146200046e5760008415620004555750858301515b600019600386901b1c1916600185901b178555620003f9565b600085815260208120601f198616915b828110156200049f578886015182559484019460019091019084016200047e565b5085821015620004be5787850151600019600388901b60f8161c191681555b5050505050600190811b01905550565b6135ea80620004de6000396000f3fe6080604052600436106102505760003560e01c80638bbbbbde11610139578063ba2f303b116100b6578063d8e660ed1161007a578063d8e660ed146106e6578063dc08e7691461071f578063eced02801461074c578063f2fde38b14610761578063fc0c546a14610781578063fee84d4e146107a157600080fd5b8063ba2f303b14610665578063bc770d061461067b578063ca628c781461069b578063d38bcdee146106b0578063d459a418146106d057600080fd5b806398c44b7d116100fd57806398c44b7d146105ce5780639a1dee2b146106045780639ee664b61461061a578063a0ef91df14610630578063ae3e04b11461064557600080fd5b80638bbbbbde146105445780638da5cb5b146105645780638ea97d2614610582578063949240d414610598578063989e9299146105b857600080fd5b8063422d0171116101d25780636164e45d116101965780636164e45d146104825780636418413c146104a257806364cc37fb146104c2578063715018a6146104e25780637d8704b1146104f75780638301151c1461052457600080fd5b8063422d0171146103d657806352916f25146103f6578063561b2463146104165780635a8b9599146104295780635cdef57d1461046c57600080fd5b80631f5c735b116102195780631f5c735b1461032457806325b511bd1461034857806326a4e8d21461035e5780632d0d02f21461037e5780633e413bee1461039e57600080fd5b806218a1161461025557806307ed92d01461027757806316ea2c5714610297578063175db3c4146102cd5780631d1c7fab146102f7575b600080fd5b34801561026157600080fd5b50610275610270366004612ecd565b6107b6565b005b34801561028357600080fd5b50610275610292366004612ecd565b6107c3565b3480156102a357600080fd5b506102b76102b2366004612ecd565b6107d0565b6040516102c49190612f0a565b60405180910390f35b3480156102d957600080fd5b50600c546102e79060ff1681565b60405190151581526020016102c4565b34801561030357600080fd5b50610317610312366004612ecd565b610886565b6040516102c49190612f3d565b34801561033057600080fd5b5061033a60065481565b6040519081526020016102c4565b34801561035457600080fd5b5061033a60055481565b34801561036a57600080fd5b50610275610379366004612f83565b6109d8565b34801561038a57600080fd5b50610275610399366004612ffc565b610a02565b3480156103aa57600080fd5b506003546103be906001600160a01b031681565b6040516001600160a01b0390911681526020016102c4565b3480156103e257600080fd5b506102b76103f1366004612ecd565b610d51565b34801561040257600080fd5b50610275610411366004612ecd565b610d82565b6102756104243660046130ce565b610d8f565b34801561043557600080fd5b506102e7610444366004612f83565b6001600160a01b03166000908152600f6020526040902060020154600160a01b900460ff1690565b34801561047857600080fd5b5061033a60095481565b34801561048e57600080fd5b5061027561049d366004612ecd565b611446565b3480156104ae57600080fd5b506102b76104bd366004612ecd565b61246f565b3480156104ce57600080fd5b506102756104dd366004612ecd565b6124a0565b3480156104ee57600080fd5b506102756124ad565b34801561050357600080fd5b50610517610512366004612ecd565b6124c1565b6040516102c49190613107565b34801561053057600080fd5b5061027561053f366004612ecd565b61261f565b34801561055057600080fd5b5061027561055f366004612ecd565b61262c565b34801561057057600080fd5b506000546001600160a01b03166103be565b34801561058e57600080fd5b5061033a600a5481565b3480156105a457600080fd5b5061033a6105b3366004613148565b612639565b3480156105c457600080fd5b5061033a60045481565b3480156105da57600080fd5b5061033a6105e9366004612f83565b6001600160a01b03166000908152600f602052604090205490565b34801561061057600080fd5b5061033a600d5481565b34801561062657600080fd5b5061033a60075481565b34801561063c57600080fd5b50610275612699565b34801561065157600080fd5b50610275610660366004612ecd565b61273d565b34801561067157600080fd5b5061033a60085481565b34801561068757600080fd5b50610275610696366004612ecd565b61274a565b3480156106a757600080fd5b50610275612757565b3480156106bc57600080fd5b506102756106cb366004612f83565b61283e565b3480156106dc57600080fd5b5061033a600b5481565b3480156106f257600080fd5b5061033a610701366004612f83565b6001600160a01b03166000908152600f602052604090206001015490565b34801561072b57600080fd5b5061073f61073a366004612ecd565b612868565b6040516102c49190613178565b34801561075857600080fd5b5061033a61299f565b34801561076d57600080fd5b5061027561077c366004612f83565b6129f8565b34801561078d57600080fd5b506002546103be906001600160a01b031681565b3480156107ad57600080fd5b50610275612a6e565b6107be612ab8565b600a55565b6107cb612ab8565b600555565b6060600e82815481106107e5576107e56131b0565b90600052602060002090600702016002018054610801906131c6565b80601f016020809104026020016040519081016040528092919081815260200182805461082d906131c6565b801561087a5780601f1061084f5761010080835404028352916020019161087a565b820191906000526020600020905b81548152906001019060200180831161085d57829003601f168201915b50505050509050919050565b60135460609042906000805b828110156108e7578386601383815481106108af576108af6131b0565b9060005260206000209060030201600101546108cb9190613216565b11156108df57816108db81613229565b9250505b600101610892565b5060008167ffffffffffffffff81111561090357610903613242565b60405190808252806020026020018201604052801561092c578160200160208202803683370190505b50905060005b838110156109ce5784876013838154811061094f5761094f6131b0565b90600052602060002090600302016001015461096b9190613216565b11156109c65760138181548110610984576109846131b0565b906000526020600020906003020160020160149054906101000a900460ff168282815181106109b5576109b56131b0565b911515602092830291909101909101525b600101610932565b5095945050505050565b6109e0612ab8565b600280546001600160a01b0319166001600160a01b0392909216919091179055565b610a0a612ab8565b600c5460ff16610a615760405162461bcd60e51b815260206004820152601b60248201527f43757272656e742065706f636820686173206e6f7420656e646564000000000060448201526064015b60405180910390fd5b600c805460ff19169055600e805489918991600090610a8257610a826131b0565b90600052602060002090600702016000019182610aa09291906132bb565b508585600e600081548110610ab757610ab76131b0565b90600052602060002090600702016001019182610ad59291906132bb565b508383600e600181548110610aec57610aec6131b0565b90600052602060002090600702016000019182610b0a9291906132bb565b508181600e600181548110610b2157610b216131b0565b90600052602060002090600702016001019182610b3f9291906132bb565b506000600e600081548110610b5657610b566131b0565b9060005260206000209060070201600301819055506000600e600181548110610b8157610b816131b0565b9060005260206000209060070201600301819055506000600e600281548110610bac57610bac6131b0565b9060005260206000209060070201600301819055506000600e600081548110610bd757610bd76131b0565b9060005260206000209060070201600401819055506000600e600181548110610c0257610c026131b0565b9060005260206000209060070201600401819055506000600e600281548110610c2d57610c2d6131b0565b9060005260206000209060070201600401819055506000600e600081548110610c5857610c586131b0565b9060005260206000209060070201600501819055506000600e600181548110610c8357610c836131b0565b9060005260206000209060070201600501819055506000600e600281548110610cae57610cae6131b0565b9060005260206000209060070201600501819055506000600e600081548110610cd957610cd96131b0565b9060005260206000209060070201600601819055506000600e600181548110610d0457610d046131b0565b9060005260206000209060070201600601819055506000600e600281548110610d2f57610d2f6131b0565b6000918252602090912060066007909202010155505042600d55505050505050565b6060600e8281548110610d6657610d666131b0565b90600052602060002090600702016001018054610801906131c6565b610d8a612ab8565b600b55565b610d97612b12565b600c5460ff1615610de25760405162461bcd60e51b8152602060048201526015602482015274115c1bd8da081b9bdd081cdd185c9d1959081e595d605a1b6044820152606401610a58565b610dea61299f565b15610e375760405162461bcd60e51b815260206004820152601860248201527f42657474696e672070686173652068617320656e6465642e00000000000000006044820152606401610a58565b6002831115610e7a5760405162461bcd60e51b815260206004820152600f60248201526e125b9d985b1a59081c1bdbdb081259608a1b6044820152606401610a58565b826002148015610e875750805b15610ed45760405162461bcd60e51b815260206004820181905260248201527f43616e6e6f74207374616b65207573646320696e20746869726420706f6f6c2e6044820152606401610a58565b336000908152600f60205260409020600201546001600160a01b031615610f485760405162461bcd60e51b815260206004820152602260248201527f5573657220616c7265616479207374616b656420666f7220746869732065706f6044820152610c6d60f31b6064820152608401610a58565b818115610fd9576001841115610f925760405162461bcd60e51b815260206004820152600f60248201526e125b9d985b1a59081c1bdbdb081259608a1b6044820152606401610a58565b612710600b54612710610fa59190613376565b610faf9085613389565b610fb991906133a0565b600354909150610fd4906001600160a01b0316333086612b6b565b610ff1565b600254610ff1906001600160a01b0316333086612b6b565b600081116110415760405162461bcd60e51b815260206004820152601d60248201527f4d757374207374616b65206d6f7265207468616e203020746f6b656e730000006044820152606401610a58565b60408051608081018252858152602080820184815233838501818152871515606086019081526000928352600f909452949020835181559051600182015592516002909301805491511515600160a01b026001600160a81b03199092166001600160a01b03949094169390931717909155826110bd57836110c0565b60005b600e86815481106110d3576110d36131b0565b906000526020600020906007020160030160008282546110f39190613216565b90915550839050611105576000611107565b835b600e868154811061111a5761111a6131b0565b9060005260206000209060070201600401600082825461113a9190613216565b9091555083905061114c57600161114f565b60005b60ff16600e8681548110611165576111656131b0565b906000526020600020906007020160050160008282546111859190613216565b9091555083905061119757600061119a565b60015b60ff16600e86815481106111b0576111b06131b0565b906000526020600020906007020160060160008282546111d09190613216565b909155505060008590036112a2576010805460018101825560009190915281517f1b6847dc741a1b0cd08d278845f9d819d87b734759afb55fe2de5cb82a9ae67260039092029182015560208201517f1b6847dc741a1b0cd08d278845f9d819d87b734759afb55fe2de5cb82a9ae67382015560408201517f1b6847dc741a1b0cd08d278845f9d819d87b734759afb55fe2de5cb82a9ae674909101805460608401516001600160a01b039093166001600160a81b031990911617600160a01b92151592909202919091179055611436565b8460010361136e576011805460018101825560009190915281517f31ecc21a745e3968a04e9570e4425bc18fa8019c68028196b546d1669c200c6860039092029182015560208201517f31ecc21a745e3968a04e9570e4425bc18fa8019c68028196b546d1669c200c6982015560408201517f31ecc21a745e3968a04e9570e4425bc18fa8019c68028196b546d1669c200c6a909101805460608401516001600160a01b039093166001600160a81b031990911617600160a01b92151592909202919091179055611436565b84600203611436576012805460018101825560009190915281517fbb8a6a4669ba250d26cd7a459eca9d215f8307e33aebe50379bc5a3617ec344460039092029182015560208201517fbb8a6a4669ba250d26cd7a459eca9d215f8307e33aebe50379bc5a3617ec344582015560408201517fbb8a6a4669ba250d26cd7a459eca9d215f8307e33aebe50379bc5a3617ec3446909101805460608401516001600160a01b039093166001600160a81b031990911617600160a01b921515929092029190911790555b505061144160018055565b505050565b61144e612ab8565b611456612b12565b600c5460ff16156114a95760405162461bcd60e51b815260206004820152601b60248201527f43757272656e742065706f636820616c726561647920656e64656400000000006044820152606401610a58565b6114b161299f565b6002146115005760405162461bcd60e51b815260206004820181905260248201527f45706f6368206e6f7420726561647920746f20626520656e646564207965742e6044820152606401610a58565b600c805460ff1916600190811790915560009061151e908390613376565b90506000811561153057601154611534565b6010545b9050600083156115465760115461154a565b6010545b905060405180602001604052806000815250600e848154811061156f5761156f6131b0565b9060005260206000209060070201600201908161158c91906133c2565b50600e84815481106115a0576115a06131b0565b9060005260206000209060070201600001600e85815481106115c4576115c46131b0565b906000526020600020906007020160020190816115e1919061347c565b50811580156115ee575080155b1561161f576115ff60106000612e80565b61160b60116000612e80565b61161760126000612e80565b505050612463565b806000036118585760005b8281101561184b5760008415611660576011828154811061164d5761164d6131b0565b9060005260206000209060030201611682565b60108281548110611673576116736131b0565b90600052602060002090600302015b6040805160808101825282548152600183015460208201526002909201546001600160a01b03811691830191909152600160a01b900460ff16158015606083015290915061174c576003546040808301516020840151915163a9059cbb60e01b81526001600160a01b039093169263a9059cbb926117039291600401613549565b6020604051808303816000875af1158015611722573d6000803e3d6000fd5b505050506040513d601f19601f820116820180604052508101906117469190613562565b506117ca565b6002546040808301516020840151915163a9059cbb60e01b81526001600160a01b039093169263a9059cbb926117859291600401613549565b6020604051808303816000875af11580156117a4573d6000803e3d6000fd5b505050506040513d601f19601f820116820180604052508101906117c89190613562565b505b604080516080810182526000808252602080830182815283850183815260608501848152968601516001600160a01b039081168552600f9093529490922092518355905160018381019190915592516002909201805494511515600160a01b026001600160a81b03199095169290911691909117929092179091550161162a565b506115ff60106000612e80565b60008060005b84811015611acc57600086156118945760118281548110611881576118816131b0565b90600052602060002090600302016118b6565b601082815481106118a7576118a76131b0565b90600052602060002090600302015b60408051608081018252825481526001830154602082018190526002909301546001600160a01b03811692820192909252600160a01b90910460ff16151560608201526006549092506000916127109161190f91613389565b61191991906133a0565b9050600081836020015161192d9190613376565b90508260600151156119c357600354604080850151905163a9059cbb60e01b81526001600160a01b039092169163a9059cbb9161196e918590600401613549565b6020604051808303816000875af115801561198d573d6000803e3d6000fd5b505050506040513d601f19601f820116820180604052508101906119b19190613562565b506119bc8286613216565b9450611a49565b600254604080850151905163a9059cbb60e01b81526001600160a01b039092169163a9059cbb916119f8918590600401613549565b6020604051808303816000875af1158015611a17573d6000803e3d6000fd5b505050506040513d601f19601f82011682018060405250810190611a3b9190613562565b50611a468287613216565b95505b5050604080516080810182526000808252602080830182815283850183815260608501848152968601516001600160a01b039081168552600f9093529490922092518355905160018381019190915592516002909201805494511515600160a01b026001600160a81b03199095169290911691909117929092179091550161185e565b50600061271060075484611ae09190613389565b611aea91906133a0565b9050600061271060075484611aff9190613389565b611b0991906133a0565b90506000806000600e8b81548110611b2357611b236131b0565b9060005260206000209060070201600501541115611b6e57600e8a81548110611b4e57611b4e6131b0565b90600052602060002090600702016005015484611b6b91906133a0565b91505b6000600e8b81548110611b8357611b836131b0565b9060005260206000209060070201600601541115611bce57600e8a81548110611bae57611bae6131b0565b90600052602060002090600702016006015483611bcb91906133a0565b90505b60005b87811015611fd85760008b15611c075760118281548110611bf457611bf46131b0565b9060005260206000209060030201611c29565b60108281548110611c1a57611c1a6131b0565b90600052602060002090600302015b6040805160808101825282548152600183015460208201526002909201546001600160a01b03811691830191909152600160a01b900460ff161580156060830152909150611de657600354604082015160208301516001600160a01b039092169163a9059cbb9190611c9c908790613216565b6040518363ffffffff1660e01b8152600401611cb9929190613549565b6020604051808303816000875af1158015611cd8573d6000803e3d6000fd5b505050506040513d601f19601f82011682018060405250810190611cfc9190613562565b50604080516080810182528481524260208201908152838301516001600160a01b0390811693830193845260608086015115159084019081526013805460018101825560009190915293517f66de8ffda797e3de9c05e8fc57b3bf0ec28a930d40b0d285d93c06501cf6a09060039095029485015591517f66de8ffda797e3de9c05e8fc57b3bf0ec28a930d40b0d285d93c06501cf6a09184015592517f66de8ffda797e3de9c05e8fc57b3bf0ec28a930d40b0d285d93c06501cf6a09290920180549151929093166001600160a81b031990911617600160a01b91151591909102179055611f57565b600254604082015160208301516001600160a01b039092169163a9059cbb9190611e11908890613216565b6040518363ffffffff1660e01b8152600401611e2e929190613549565b6020604051808303816000875af1158015611e4d573d6000803e3d6000fd5b505050506040513d601f19601f82011682018060405250810190611e719190613562565b50604080516080810182528581524260208201908152838301516001600160a01b0390811693830193845260608086015115159084019081526013805460018101825560009190915293517f66de8ffda797e3de9c05e8fc57b3bf0ec28a930d40b0d285d93c06501cf6a09060039095029485015591517f66de8ffda797e3de9c05e8fc57b3bf0ec28a930d40b0d285d93c06501cf6a09184015592517f66de8ffda797e3de9c05e8fc57b3bf0ec28a930d40b0d285d93c06501cf6a09290920180549151929093166001600160a81b031990911617600160a01b911515919091021790555b604080516080810182526000808252602080830182815283850183815260608501848152968601516001600160a01b039081168552600f9093529490922092518355905160018381019190915592516002909201805494511515600160a01b026001600160a81b031990951692909116919091179290921790915501611bd1565b50600061271060085488611fec9190613389565b611ff691906133a0565b905060006127106008548861200b9190613389565b61201591906133a0565b60035460405163a9059cbb60e01b81529192506001600160a01b03169063a9059cbb9061204a9061dead908590600401613549565b6020604051808303816000875af1158015612069573d6000803e3d6000fd5b505050506040513d601f19601f8201168201806040525081019061208d9190613562565b5060025460405163a9059cbb60e01b81526001600160a01b039091169063a9059cbb906120c29061dead908690600401613549565b6020604051808303816000875af11580156120e1573d6000803e3d6000fd5b505050506040513d601f19601f820116820180604052508101906121059190613562565b506012546009546000906127109061211d908c613389565b61212791906133a0565b905060006127106009548b61213c9190613389565b61214691906133a0565b90506000806000600e600281548110612161576121616131b0565b90600052602060002090600702016005015411156121ad57600e60028154811061218d5761218d6131b0565b906000526020600020906007020160050154846121aa91906133a0565b91505b6000600e6002815481106121c3576121c36131b0565b906000526020600020906007020160060154111561220f57600e6002815481106121ef576121ef6131b0565b9060005260206000209060070201600601548361220c91906133a0565b90505b60005b8581101561242d5760006012828154811061222f5761222f6131b0565b600091825260209182902060408051608081018252600393909302909101805483526001810154938301939093526002909201546001600160a01b03811692820192909252600160a01b90910460ff16158015606083015290915061231f57600354604082015160208301516001600160a01b039092169163a9059cbb91906122b9908790613216565b6040518363ffffffff1660e01b81526004016122d6929190613549565b6020604051808303816000875af11580156122f5573d6000803e3d6000fd5b505050506040513d601f19601f820116820180604052508101906123199190613562565b506123ac565b600254604082015160208301516001600160a01b039092169163a9059cbb919061234a908890613216565b6040518363ffffffff1660e01b8152600401612367929190613549565b6020604051808303816000875af1158015612386573d6000803e3d6000fd5b505050506040513d601f19601f820116820180604052508101906123aa9190613562565b505b604080516080810182526000808252602080830182815283850183815260608501848152968601516001600160a01b039081168552600f9093529490922092518355905160018381019190915592516002909201805494511515600160a01b026001600160a81b031990951692909116919091179290921790915501612212565b5061243a60106000612e80565b61244660116000612e80565b61245260126000612e80565b505050505050505050505050505050505b61246c60018055565b50565b6060600e8281548110612484576124846131b0565b90600052602060002090600702016000018054610801906131c6565b6124a8612ab8565b600955565b6124b5612ab8565b6124bf6000612bcb565b565b60135460609042906000805b82811015612522578386601383815481106124ea576124ea6131b0565b9060005260206000209060030201600101546125069190613216565b111561251a578161251681613229565b9250505b6001016124cd565b5060008167ffffffffffffffff81111561253e5761253e613242565b604051908082528060200260200182016040528015612567578160200160208202803683370190505b50905060005b838110156109ce5784876013838154811061258a5761258a6131b0565b9060005260206000209060030201600101546125a69190613216565b111561261757601381815481106125bf576125bf6131b0565b906000526020600020906003020160020160009054906101000a90046001600160a01b03168282815181106125f6576125f66131b0565b60200260200101906001600160a01b031690816001600160a01b0316815250505b60010161256d565b612627612ab8565b600455565b612634612ab8565b600755565b60008161266a57600e8381548110612653576126536131b0565b906000526020600020906007020160030154612690565b600e838154811061267d5761267d6131b0565b9060005260206000209060070201600401545b90505b92915050565b6126a1612ab8565b6126a9612b12565b604051600090339047908381818185875af1925050503d80600081146126eb576040519150601f19603f3d011682016040523d82523d6000602084013e6126f0565b606091505b50509050806127335760405162461bcd60e51b815260206004820152600f60248201526e151c985b9cd9995c8819985a5b1959608a1b6044820152606401610a58565b506124bf60018055565b612745612ab8565b600655565b612752612ab8565b600855565b61275f612ab8565b612767612b12565b6002546040516370a0823160e01b81523060048201526001600160a01b039091169063a9059cbb90339083906370a08231906024015b602060405180830381865afa1580156127ba573d6000803e3d6000fd5b505050506040513d601f19601f820116820180604052508101906127de919061357f565b6040518363ffffffff1660e01b81526004016127fb929190613549565b6020604051808303816000875af115801561281a573d6000803e3d6000fd5b505050506040513d601f19601f820116820180604052508101906127339190613562565b612846612ab8565b600380546001600160a01b0319166001600160a01b0392909216919091179055565b60135460609042906000805b828110156128c957838660138381548110612891576128916131b0565b9060005260206000209060030201600101546128ad9190613216565b11156128c157816128bd81613229565b9250505b600101612874565b5060008167ffffffffffffffff8111156128e5576128e5613242565b60405190808252806020026020018201604052801561290e578160200160208202803683370190505b50905060005b838110156109ce57848760138381548110612931576129316131b0565b90600052602060002090600302016001015461294d9190613216565b11156129975760138181548110612966576129666131b0565b90600052602060002090600302016000015482828151811061298a5761298a6131b0565b6020026020010181815250505b600101612914565b600080600d54426129b09190613376565b90506005546004546129c29190613216565b8111806129d15750600c5460ff165b156129de57600291505090565b6004548111156129f057600191505090565b600091505090565b612a00612ab8565b6001600160a01b038116612a655760405162461bcd60e51b815260206004820152602660248201527f4f776e61626c653a206e6577206f776e657220697320746865207a65726f206160448201526564647265737360d01b6064820152608401610a58565b61246c81612bcb565b612a76612ab8565b612a7e612b12565b6003546040516370a0823160e01b81523060048201526001600160a01b039091169063a9059cbb90339083906370a082319060240161279d565b6000546001600160a01b031633146124bf5760405162461bcd60e51b815260206004820181905260248201527f4f776e61626c653a2063616c6c6572206973206e6f7420746865206f776e65726044820152606401610a58565b600260015403612b645760405162461bcd60e51b815260206004820152601f60248201527f5265656e7472616e637947756172643a207265656e7472616e742063616c6c006044820152606401610a58565b6002600155565b604080516001600160a01b0385811660248301528416604482015260648082018490528251808303909101815260849091019091526020810180516001600160e01b03166323b872dd60e01b179052612bc5908590612c1b565b50505050565b600080546001600160a01b038381166001600160a01b0319831681178455604051919092169283917f8be0079c531659141344cd1fd0a4f28419497f9722a3daafe3b4186f6b6457e09190a35050565b6000612c70826040518060400160405280602081526020017f5361666545524332303a206c6f772d6c6576656c2063616c6c206661696c6564815250856001600160a01b0316612cf09092919063ffffffff16565b9050805160001480612c91575080806020019051810190612c919190613562565b6114415760405162461bcd60e51b815260206004820152602a60248201527f5361666545524332303a204552433230206f7065726174696f6e20646964206e6044820152691bdd081cdd58d8d9595960b21b6064820152608401610a58565b6060612cff8484600085612d07565b949350505050565b606082471015612d685760405162461bcd60e51b815260206004820152602660248201527f416464726573733a20696e73756666696369656e742062616c616e636520666f6044820152651c8818d85b1b60d21b6064820152608401610a58565b600080866001600160a01b03168587604051612d849190613598565b60006040518083038185875af1925050503d8060008114612dc1576040519150601f19603f3d011682016040523d82523d6000602084013e612dc6565b606091505b5091509150612dd787838387612de2565b979650505050505050565b60608315612e51578251600003612e4a576001600160a01b0385163b612e4a5760405162461bcd60e51b815260206004820152601d60248201527f416464726573733a2063616c6c20746f206e6f6e2d636f6e74726163740000006044820152606401610a58565b5081612cff565b612cff8383815115612e665781518083602001fd5b8060405162461bcd60e51b8152600401610a589190612f0a565b508054600082556003029060005260206000209081019061246c91905b80821115612ec957600080825560018201556002810180546001600160a81b0319169055600301612e9d565b5090565b600060208284031215612edf57600080fd5b5035919050565b60005b83811015612f01578181015183820152602001612ee9565b50506000910152565b6020815260008251806020840152612f29816040850160208701612ee6565b601f01601f19169190910160400192915050565b6020808252825182820181905260009190848201906040850190845b81811015612f77578351151583529284019291840191600101612f59565b50909695505050505050565b600060208284031215612f9557600080fd5b81356001600160a01b0381168114612fac57600080fd5b9392505050565b60008083601f840112612fc557600080fd5b50813567ffffffffffffffff811115612fdd57600080fd5b602083019150836020828501011115612ff557600080fd5b9250929050565b6000806000806000806000806080898b03121561301857600080fd5b883567ffffffffffffffff8082111561303057600080fd5b61303c8c838d01612fb3565b909a50985060208b013591508082111561305557600080fd5b6130618c838d01612fb3565b909850965060408b013591508082111561307a57600080fd5b6130868c838d01612fb3565b909650945060608b013591508082111561309f57600080fd5b506130ac8b828c01612fb3565b999c989b5096995094979396929594505050565b801515811461246c57600080fd5b6000806000606084860312156130e357600080fd5b833592506020840135915060408401356130fc816130c0565b809150509250925092565b6020808252825182820181905260009190848201906040850190845b81811015612f775783516001600160a01b031683529284019291840191600101613123565b6000806040838503121561315b57600080fd5b82359150602083013561316d816130c0565b809150509250929050565b6020808252825182820181905260009190848201906040850190845b81811015612f7757835183529284019291840191600101613194565b634e487b7160e01b600052603260045260246000fd5b600181811c908216806131da57607f821691505b6020821081036131fa57634e487b7160e01b600052602260045260246000fd5b50919050565b634e487b7160e01b600052601160045260246000fd5b8082018082111561269357612693613200565b60006001820161323b5761323b613200565b5060010190565b634e487b7160e01b600052604160045260246000fd5b601f82111561144157600081815260208120601f850160051c8101602086101561327f5750805b601f850160051c820191505b8181101561329e5782815560010161328b565b505050505050565b600019600383901b1c191660019190911b1790565b67ffffffffffffffff8311156132d3576132d3613242565b6132e7836132e183546131c6565b83613258565b6000601f84116001811461331557600085156133035750838201355b61330d86826132a6565b84555061336f565b600083815260209020601f19861690835b828110156133465786850135825560209485019460019092019101613326565b50868210156133635760001960f88860031b161c19848701351681555b505060018560011b0183555b5050505050565b8181038181111561269357612693613200565b808202811582820484141761269357612693613200565b6000826133bd57634e487b7160e01b600052601260045260246000fd5b500490565b815167ffffffffffffffff8111156133dc576133dc613242565b6133f0816133ea84546131c6565b84613258565b602080601f83116001811461341f576000841561340d5750858301515b61341785826132a6565b86555061329e565b600085815260208120601f198616915b8281101561344e5788860151825594840194600190910190840161342f565b508582101561346c5787850151600019600388901b60f8161c191681555b5050505050600190811b01905550565b818103613487575050565b61349182546131c6565b67ffffffffffffffff8111156134a9576134a9613242565b6134b7816133ea84546131c6565b6000601f8211600181146134e557600083156134d35750848201545b6134dd84826132a6565b85555061336f565b600085815260209020601f19841690600086815260209020845b8381101561351f57828601548255600195860195909101906020016134ff565b508583101561346c5793015460001960f8600387901b161c19169092555050600190811b01905550565b6001600160a01b03929092168252602082015260400190565b60006020828403121561357457600080fd5b8151612fac816130c0565b60006020828403121561359157600080fd5b5051919050565b600082516135aa818460208701612ee6565b919091019291505056fea264697066735822122003d33ae9766695129ad4d0871269b7ecdb9065b747a8b5ec775a02fdd5c0e4f764736f6c63430008120033bb7b4a454dc3493923482f07822329ed19e8244eff582cc204f8554c3620c3fd",
  "linkReferences": {},
  "deployedLinkReferences": {}
}