{
  "_format": "hh-sol-artifact-1",
  "contractName": "Presale",
  "sourceName": "contracts/Presale.sol",
  "abi": [
    {
      "inputs": [
        {
          "internalType": "address",
          "name": "_token",
          "type": "address"
        }
      ],
      "stateMutability": "nonpayable",
      "type": "constructor"
    },
    {
      "inputs": [
        {
          "internalType": "address[]",
          "name": "addresses",
          "type": "address[]"
        }
      ],
      "name": "addToWhitelist",
      "outputs": [],
      "stateMutability": "nonpayable",
      "type": "function"
    },
    {
      "inputs": [],
      "name": "buyTokens",
      "outputs": [],
      "stateMutability": "payable",
      "type": "function"
    },
    {
      "inputs": [],
      "name": "claimTokens",
      "outputs": [],
      "stateMutability": "nonpayable",
      "type": "function"
    },
    {
      "inputs": [],
      "name": "endPublicSale",
      "outputs": [],
      "stateMutability": "nonpayable",
      "type": "function"
    },
    {
      "inputs": [
        {
          "internalType": "address",
          "name": "_address",
          "type": "address"
        }
      ],
      "name": "isSaleOpenFor",
      "outputs": [
        {
          "internalType": "bool",
          "name": "",
          "type": "bool"
        }
      ],
      "stateMutability": "view",
      "type": "function"
    },
    {
      "inputs": [],
      "name": "owner",
      "outputs": [
        {
          "internalType": "address",
          "name": "",
          "type": "address"
        }
      ],
      "stateMutability": "view",
      "type": "function"
    },
    {
      "inputs": [],
      "name": "publicSaleActive",
      "outputs": [
        {
          "internalType": "bool",
          "name": "",
          "type": "bool"
        }
      ],
      "stateMutability": "view",
      "type": "function"
    },
    {
      "inputs": [],
      "name": "publicSaleCap",
      "outputs": [
        {
          "internalType": "uint256",
          "name": "",
          "type": "uint256"
        }
      ],
      "stateMutability": "view",
      "type": "function"
    },
    {
      "inputs": [],
      "name": "publicSalePrice",
      "outputs": [
        {
          "internalType": "uint256",
          "name": "",
          "type": "uint256"
        }
      ],
      "stateMutability": "view",
      "type": "function"
    },
    {
      "inputs": [],
      "name": "publicSaleStartTime",
      "outputs": [
        {
          "internalType": "uint256",
          "name": "",
          "type": "uint256"
        }
      ],
      "stateMutability": "view",
      "type": "function"
    },
    {
      "inputs": [],
      "name": "publicSaleTokenAllocation",
      "outputs": [
        {
          "internalType": "uint256",
          "name": "",
          "type": "uint256"
        }
      ],
      "stateMutability": "view",
      "type": "function"
    },
    {
      "inputs": [],
      "name": "saleEnded",
      "outputs": [
        {
          "internalType": "bool",
          "name": "",
          "type": "bool"
        }
      ],
      "stateMutability": "view",
      "type": "function"
    },
    {
      "inputs": [
        {
          "internalType": "uint256",
          "name": "_publicSaleCap",
          "type": "uint256"
        }
      ],
      "name": "setCap",
      "outputs": [],
      "stateMutability": "nonpayable",
      "type": "function"
    },
    {
      "inputs": [
        {
          "internalType": "uint256",
          "name": "_publicSalePrice",
          "type": "uint256"
        }
      ],
      "name": "setPrice",
      "outputs": [],
      "stateMutability": "nonpayable",
      "type": "function"
    },
    {
      "inputs": [
        {
          "internalType": "uint256",
          "name": "_startTime",
          "type": "uint256"
        },
        {
          "internalType": "uint256",
          "name": "_amount",
          "type": "uint256"
        }
      ],
      "name": "startPublicSale",
      "outputs": [],
      "stateMutability": "nonpayable",
      "type": "function"
    },
    {
      "inputs": [],
      "name": "token",
      "outputs": [
        {
          "internalType": "contract IERC20",
          "name": "",
          "type": "address"
        }
      ],
      "stateMutability": "view",
      "type": "function"
    },
    {
      "inputs": [],
      "name": "tokenWithdraw",
      "outputs": [],
      "stateMutability": "nonpayable",
      "type": "function"
    },
    {
      "inputs": [
        {
          "internalType": "address",
          "name": "",
          "type": "address"
        }
      ],
      "name": "tokensOwed",
      "outputs": [
        {
          "internalType": "uint256",
          "name": "",
          "type": "uint256"
        }
      ],
      "stateMutability": "view",
      "type": "function"
    },
    {
      "inputs": [
        {
          "internalType": "address",
          "name": "",
          "type": "address"
        }
      ],
      "name": "whitelisted",
      "outputs": [
        {
          "internalType": "bool",
          "name": "",
          "type": "bool"
        }
      ],
      "stateMutability": "view",
      "type": "function"
    },
    {
      "inputs": [],
      "name": "withdraw",
      "outputs": [],
      "stateMutability": "nonpayable",
      "type": "function"
    }
  ],
  "bytecode": "0x608060405234801561001057600080fd5b50604051610e21380380610e2183398101604081905261002f9161005d565b600080546001600160a01b039092166001600160a01b0319928316179055600180549091163317905561008d565b60006020828403121561006f57600080fd5b81516001600160a01b038116811461008657600080fd5b9392505050565b610d858061009c6000396000f3fe60806040526004361061011f5760003560e01c80638da5cb5b116100a0578063bc8893b411610064578063bc8893b414610304578063c7d17fd11461031e578063d0febe4c14610333578063d936547e1461033b578063fc0c546a1461036b57600080fd5b80638da5cb5b1461026157806391b7f5ed1461029957806399d5fe73146102b95780639b6860c8146102cf5780639b8906ae146102e557600080fd5b806347786d37116100e757806347786d37146101e057806348c54b9d1461020057806364826b7a146102155780636bb7b1d91461022b5780637f6497831461024157600080fd5b806321a8bd1e1461012457806330c74e04146101595780633a12e933146101705780633ccfd60b146101905780633d5dff53146101a5575b600080fd5b34801561013057600080fd5b5061014461013f366004610b5a565b61038b565b60405190151581526020015b60405180910390f35b34801561016557600080fd5b5061016e6103fd565b005b34801561017c57600080fd5b5061016e61018b366004610b8a565b610536565b34801561019c57600080fd5b5061016e610679565b3480156101b157600080fd5b506101d26101c0366004610b5a565b60086020526000908152604090205481565b604051908152602001610150565b3480156101ec57600080fd5b5061016e6101fb366004610bac565b610740565b34801561020c57600080fd5b5061016e61076f565b34801561022157600080fd5b506101d260035481565b34801561023757600080fd5b506101d260045481565b34801561024d57600080fd5b5061016e61025c366004610bc5565b6108af565b34801561026d57600080fd5b50600154610281906001600160a01b031681565b6040516001600160a01b039091168152602001610150565b3480156102a557600080fd5b5061016e6102b4366004610bac565b610950565b3480156102c557600080fd5b506101d260055481565b3480156102db57600080fd5b506101d260025481565b3480156102f157600080fd5b5060065461014490610100900460ff1681565b34801561031057600080fd5b506006546101449060ff1681565b34801561032a57600080fd5b5061016e61097f565b61016e610a03565b34801561034757600080fd5b50610144610356366004610b5a565b60076020526000908152604090205460ff1681565b34801561037757600080fd5b50600054610281906001600160a01b031681565b60065460009060ff166103a057506000919050565b60045442106103b157506001919050565b6107086004546103c19190610c50565b42101580156103e857506001600160a01b03821660009081526007602052604090205460ff165b156103f557506001919050565b506000919050565b6001546001600160a01b031633146104305760405162461bcd60e51b815260040161042790610c69565b60405180910390fd5b6000546001546040516370a0823160e01b81523060048201526001600160a01b039283169263a9059cbb92169083906370a0823190602401602060405180830381865afa158015610485573d6000803e3d6000fd5b505050506040513d601f19601f820116820180604052508101906104a99190610c8c565b6040516001600160e01b031960e085901b1681526001600160a01b03909216600483015260248201526044016020604051808303816000875af11580156104f4573d6000803e3d6000fd5b505050506040513d601f19601f820116820180604052508101906105189190610ca5565b6105345760405162461bcd60e51b815260040161042790610cc7565b565b6001546001600160a01b031633146105605760405162461bcd60e51b815260040161042790610c69565b60065460ff1615801561057b5750600654610100900460ff16155b6105c75760405162461bcd60e51b815260206004820152601860248201527f53616c6520616c726561647920696e697469616c697a656400000000000000006044820152606401610427565b6006805460ff19166001179055600482815560058290556000546040516323b872dd60e01b81523392810192909252306024830152604482018390526001600160a01b0316906323b872dd906064016020604051808303816000875af1158015610635573d6000803e3d6000fd5b505050506040513d601f19601f820116820180604052508101906106599190610ca5565b6106755760405162461bcd60e51b815260040161042790610cc7565b5050565b6001546001600160a01b031633146106a35760405162461bcd60e51b815260040161042790610c69565b6001546040516000916001600160a01b03169047908381818185875af1925050503d80600081146106f0576040519150601f19603f3d011682016040523d82523d6000602084013e6106f5565b606091505b505090508061073d5760405162461bcd60e51b81526020600482015260146024820152732330b4b632b2103a379039b2b7321022ba3432b960611b6044820152606401610427565b50565b6001546001600160a01b0316331461076a5760405162461bcd60e51b815260040161042790610c69565b600355565b600654610100900460ff166107bb5760405162461bcd60e51b815260206004820152601260248201527114d85b19481a185cc81b9bdd08195b99195960721b6044820152606401610427565b336000908152600860205260409020548061080d5760405162461bcd60e51b81526020600482015260126024820152714e6f20746f6b656e7320746f20636c61696d60701b6044820152606401610427565b336000818152600860205260408082208290559054905163a9059cbb60e01b81526004810192909252602482018390526001600160a01b03169063a9059cbb906044016020604051808303816000875af115801561086f573d6000803e3d6000fd5b505050506040513d601f19601f820116820180604052508101906108939190610ca5565b61073d5760405162461bcd60e51b815260040161042790610cc7565b6001546001600160a01b031633146108d95760405162461bcd60e51b815260040161042790610c69565b60005b8181101561094b576001600760008585858181106108fc576108fc610cf6565b90506020020160208101906109119190610b5a565b6001600160a01b031681526020810191909152604001600020805460ff19169115159190911790558061094381610d0c565b9150506108dc565b505050565b6001546001600160a01b0316331461097a5760405162461bcd60e51b815260040161042790610c69565b600255565b6001546001600160a01b031633146109a95760405162461bcd60e51b815260040161042790610c69565b60065460ff166109f25760405162461bcd60e51b815260206004820152601460248201527314d85b19481b9bdd081a5b9a5d1a585b1a5e995960621b6044820152606401610427565b6006805461ffff1916610100179055565b610a0c3361038b565b610a585760405162461bcd60e51b815260206004820152601960248201527f53616c65206e6f74206f70656e20666f7220796f7520796574000000000000006044820152606401610427565b600354341115610aaa5760405162461bcd60e51b815260206004820152601760248201527f45786365656473207075626c69632073616c65206361700000000000000000006044820152606401610427565b600060025434610aba9190610d25565b9050806005541015610b1a5760405162461bcd60e51b8152602060048201526024808201527f4e6f7420656e6f75676820746f6b656e73206c65667420696e20616c6c6f63616044820152633a34b7b760e11b6064820152608401610427565b3360009081526008602052604081208054839290610b39908490610d3c565b925050819055508060056000828254610b529190610c50565b909155505050565b600060208284031215610b6c57600080fd5b81356001600160a01b0381168114610b8357600080fd5b9392505050565b60008060408385031215610b9d57600080fd5b50508035926020909101359150565b600060208284031215610bbe57600080fd5b5035919050565b60008060208385031215610bd857600080fd5b823567ffffffffffffffff80821115610bf057600080fd5b818501915085601f830112610c0457600080fd5b813581811115610c1357600080fd5b8660208260051b8501011115610c2857600080fd5b60209290920196919550909350505050565b634e487b7160e01b600052601160045260246000fd5b81810381811115610c6357610c63610c3a565b92915050565b6020808252600990820152682737ba1037bbb732b960b91b604082015260600190565b600060208284031215610c9e57600080fd5b5051919050565b600060208284031215610cb757600080fd5b81518015158114610b8357600080fd5b602080825260159082015274151bdad95b881d1c985b9cd9995c8819985a5b1959605a1b604082015260600190565b634e487b7160e01b600052603260045260246000fd5b600060018201610d1e57610d1e610c3a565b5060010190565b8082028115828204841417610c6357610c63610c3a565b80820180821115610c6357610c63610c3a56fea26469706673582212207a610a3176c7b698a236487053c1d55204107ac294a38aa2c8980dfaadf475a264736f6c63430008120033",
  "linkReferences": {},
  "deployedLinkReferences": {}
}